:040000000200363292
:03000B0002237C51
:0100130032BA
:03001B0002243D7F
:0100230032AA
:01002B0032A2
:0300330002256C37
:08008F00753902753A00E4F531
:040097003BF53CF504
:04009B003DF53E757C
:06009F003F0075400075F2
:0600A5004100E4F542F504
:0400AB0043F544F5E0
:0400AF0045F5467558
:0600B3004900754A0175C9
:0600B9004B00754C0075C0
:0300BF0021A17507
:0300C200222A757A
:0600C50023007524007504
:0600CB00250075260075FA
:0600D100270075280075F0
:0600D7002900752A0075E6
:0700DD002B00752C00E4F577
:0400E4002DF52E7553
:0600E8002F0175300275C6
:0700EE003100753204E4F556
:0500F50033F534E4F5D1
:0400FA0035F536752D
:0500FE00370075380217
:03010F00020112D8
:05011200120E2A80FE20
:0E011700D295D294758F0343D90443DB427511
:0C012500FB0043DC4275FC0043890275BE
:0301310030022277
:0A013400D29375DA21C2D8D2AE22B0
:0E013E00D296D29775DD3175DE31C2DBC2DCA0
:03014C00D2AE220E
:08014F00C2AE853882D2AE2257
:0E0157007A01C00212014FAB82D002BB02023D
:02016500800F09
:07016700E539B402028B39F7
:06016E00EBB5390280022E
:020174007A050A
:050176008B398A822292
:0A017B00C2AE853382853483D2AE14
:010185002257
:05018600D2DED28C2244
:05018B00C2DEC28C225F
:08019000438910D2ABD28E228C
:0E019800D280D281D282D283D284D2B4D2A0BD
:0D01A600D2A1D2A2D2A3D2A4D2A5D2A62269
:0A01B300C2AB752300752800D2AB23
:0101BD00221F
:0E01BE007AFFAB807C004303E0BBFF0280258C
:0201CC007D00B4
:0401CE000DBDFF0064
:0E01D200501DEC701A74E04580FB75A61E757A
:0701E000A6E1BBFF02800451
:0401E7008B0280E324
:0601EB007C017AFF80DDBB
:0301F1008A8222DD
:0C01F4001201BEAA827B00EA20E405751F
:0402000037017B0146
:030204008B8222C8
:0D020700AA82AB837C07C002C003C00412B2
:0E021400017BAD82AE83D004D003D002EAC3DA
:0E0222009DF582EB9EF583C004122970AA821E
:0E023000AB83D004C374969A74808BF063F095
:07023E008095F050027C10D6
:030245008C822286
:09024800AA82C2AB752700D2ABFB
:0C025100C3E5279A500875A61E75A6E1AB
:02025D0080F22D
:01025F00227C
:09026000AA82C0021201B3D0020F
:0C026900C3E5289A500875A61E75A6E192
:0202750080F215
:010277002264
:0B027800AA82C2ABEAF5297002C2C1E5
:03028300D2AB22D9
:0C028600AA82C2ABEAF52A700A90000BB5
:07029200E024FF9290D287E7
:03029900D2AB22C3
:0C029C00AA82C2ABEAF52B700A90000B9E
:0702A800E024FF9290D287D1
:0302AF00D2AB22AD
:0A02B200C00C85810CAA827B077C3A
:0E02BC0000C002C003C0041201B3D004D0037E
:0202CA00D00260
:0C02CC00EC7051C3E5289A40047C017BD3
:0102D800071E
:0E02D900C002C003C0041201F4AD82D004D0F4
:0A02E70003D002BD01047B0C7C0172
:0E02F100C002C003C0041201BEAD82D004D012
:0C02FF0003D002A80C181818E65D700D62
:0D030B00C002C0031201B3D003D0027C0079
:0803180075A61E75A6E180AC7C
:050320008B82D00C22CD
:07032500C00C85810C8582EC
:05032C003585833675E4
:0A033100300475FB00A80C18181822
:05033B0086FCD00C223D
:07034000C00C85810C8582D1
:050347003585833675C9
:0A034C003003A80C18181886FB7582
:05035600FC00D00C22A8
:0A035B00C2AB75240012017B8582FD
:050365002D85832E75BB
:05036A002F00D2AB22C0
:04036F00752F0122C3
:0A037300C00C85810CC082C083C05D
:0C037D00F0E50C24FBF886050886060855
:0E03890086078D828E838FF01229F2FDA3125B
:0C03970029F2FEA80C0886820886830864
:0C03A30086F0ED122957A3EE122957A88E
:0C03AF000C08740226FDE40836FE0886E7
:0C03BB0007E50C24F8F886020886030809
:0E03C70086048A828B838CF01229F2FAA3122C
:0E03D50029F2FB8D828E838FF0EA122957A346
:0C03E300EB122957A80C08740426FCE457
:0E03EF000836FD0886068C828D838EF0EA1299
:0803FD002957A3EB12295785D3
:050405000C81D00C2267
:0A040A00C00C85810CC082C083C0C5
:0C041400F005810581A80C08868208868E
:0E042000830886F01229F2FDA31229F2FEE5F0
:0A042E000C2404F8A60508A606A891
:0C0438000C08740226FFE40836FD08865C
:0D044400068F828D838EF01229F2FAA3122A
:0C04510029F2FBA80C08868208868308AC
:0E045D0086F0EA122957A3EB1229578F828DE1
:0C046B00838EF0E50C2404F8E6122957FB
:0C047700A308E6122957A80C08740426FC
:0E048300FAE40836FB0886048A828B838CF02C
:0C049100E50C2404F8E6122957A308E645
:07049D00122957850C81D0E4
:0204A4000C2228
:0A04A600C00C85810CAA82AB83C054
:0E04B00002C00312017BAC82AD83D003D002E8
:0E04BE00EAC39CF582EB9DF583C002C003C02B
:0E04CC0004C005122970AE82AF83D005D004A3
:0E04DA00D003D002C374149E74808FF063F0C0
:0C04E8008095F05054753802C002C0032B
:0E04F400C004C00512035BD005D004D003D0B5
:0C05020002752601EAC39CFCEB9DFD8CF9
:0C050E00068D07EF30E714A80C18181831
:0E051A008604C0048A828B831203251581801B
:0105280012C0
:0C052900A80C1818188604C0048A828BE5
:0605350083120340158152
:06053B0075820E12024859
:03054100D00C22B9
:0A054400C00C85810CAA82AB83ACC9
:0C054E00F0C002C003C004E50C24F8F863
:0C055A00E6C0E008E6C0E008E6C0E0E50E
:0C0566000C24FBF8E6C0E008E6C0E0084A
:0E057200E6C0E08A828B838CF0120373E58171
:0C05800024FAF581D004D003D002E50C71
:0E058C0024F7F8860574022AFAE43BFB8A8203
:0E059A008B838CF01229F2FAA31229F2FBC017
:0C05A800058A828B831204A61581D00CFA
:0105B4002224
:0A05B500C00C85810CAA82AB83AC58
:0E05BF00F0C002C003C00412040AD004D0032E
:0C05CD00D002A80C181818860574022A29
:0E05D900FAE43BFB8A828B838CF01229F2FA43
:0E05E700A31229F2FBC0058A828B831204A6A0
:0505F5001581D00C226D
:0C05FA00E53A30E01F30A00E747FC0E036
:0A060600900FA01203401581802B15
:0E061000747FC0E090F0601203251581801DFC
:0E061E0030A00E747FC0E090F060120325152E
:03062C0081800CBE
:0C062F00747FC0E0900FA0120340158102
:06063B00E53AF4F53A2255
:0706410012036F7530027512
:0A0648003802752600C2A975FB00F8
:0406520075FC002211
:03065600D2A92204
:06065900752501D2A92263
:0C065F007A077B00753101C002C0031255
:06066B00035BD003D00286
:0C067100EB701AE52FB406047A067B013A
:09067D00E531B402047A077B01A7
:0806860075A61E75A6E180E3D4
:0A068E00C00212036FD0028A82221C
:0E06980012273BAA82BA010875A61E75A6E1BC
:0206A60080F0E2
:0106A800222F
:0E06A90020A417743FC0E0900FA0120340156C
:0106B70081C1
:0B06B80020A40875A61E75A6E180F5C1
:0E06C30020A517743FC0E0900FA0120325156C
:0106D10081A7
:0B06D20020A50875A61E75A6E180F5A6
:0306DD00020641D1
:0E06E0007A007B0075820AC002C00312027805
:0406EE00D003D00263
:0906F200EB705C30A40320A504A8
:0406FB007A007B0105
:0C06FF0020A631752700758200C0021291
:06070B000278D0028A040E
:0C07110020A61B74C02527500D0C8C0284
:0A071D00752700D2C1D291752C0F90
:0807270075A61E75A6E180E233
:04072F008C027B01BC
:0E07330030A30C900009E0FCA3E0FD8C027BDB
:0107410001B6
:07074200EA24E150027A1ED7
:0807490075A61E75A6E180A152
:030751008A822277
:0C0754007A00758211C002120278D002F7
:0E076000EA7014C0021206A9D00230A2027A7A
:01076E000189
:08076F0075A61E75A6E180E9E4
:0A07770075820012027875820722D5
:0E078100AA827B007C07758204C002C003C000
:0E078F0004120278D004D003D002C002C003CE
:0E079D00C004120641D004D003D002E4BA0119
:0207AB00010447
:0107AD00FA51
:0E07AE00EB7076C002C003C0041206A9D0048E
:0C07BC00D003D00220A6487527007582EB
:0E07C8000AC002C003C004120278D004D0039D
:0207D600D0024F
:0C07D80020A61E74812527501075820099
:0D07E400C002C004120278D004D0027B01D4
:0807F10075A61E75A6E180DF6C
:0E07F900758204C002C003C004120278D0044E
:04080700D003D00248
:0E080B00EA601130A20E758200C0021202785F
:06081900D0027C0D7B0102
:08081F0075A61E75A6E1808795
:030827008C82229E
:0E082A0090000374CEF0A374FFF090000174F0
:0E083800E8F0A37403F09000057418F0A374A8
:0D084600FCF090000774E8F0A37403F0903C
:0D08530000097403F0A3E4F090000BF09096
:06086000000074AAF02262
:0E086600AA82C002120641D002758200C002B2
:0E08740012029CD002C002740EC0E0E4C0E08C
:0E088200E4C0E090000075F00012298E158190
:0E08900015811581D002C002740EC0E0E4C0D4
:0E089E00E0C0E090000012284415811581157D
:0D08AC0081D002C002740CC0E0E4C0E090F6
:0E08B900000075F000122683AB82AC8315811F
:0D08C7001581D002900000E0FDBDAA169042
:0E08D400000CE0FDA3E0FEEDB5030AEEB50456
:0608E20006BA01028001CC
:0108E80022ED
:0E08E9008A82C002120781AB82D002BB0702D6
:0208F70080017E
:0108F90022DC
:0808FA00900001E533F0A3E5D5
:0C09020034F090000074A0F08A82C00263
:0E090E00120781AC82D0028C03BB070280016D
:01091C0022B8
:08091D00900003E533F0A3E5AF
:0C09250034F0900000741AF08A82C002C6
:0E093100120781AC82D0028C03BB070280014A
:01093F002295
:08094000900007E533F0A3E588
:0C09480034F090000074A1F08A82C0021C
:0E095400120781AC82D0028C03E4BB070104C1
:0B096200FB6010900005E533F0A3E5FA
:08096D0034F0900000740AF060
:04097500EB70012200
:0D097900EA70369000097403F0A3E4F090DA
:0E098600000BF0309226900003E0FAA3E0FB95
:0E0994007402C0E0E4C0E08A828B83122A0E57
:0E09A200AA82AB8315811581900003EAF0A3B1
:0209B000EBF06A
:0E09B20090000074AAF0740CC0E0E4C0E09065
:0E09C000000075F000122683AA82AB83158119
:0E09CE00158190000CEAF0A3EBF0120698746D
:0A09DC000EC0E07400C0E07400C01B
:0E09E600E09000001227F21581158115812284
:0E09F4001206E0AA827B00900009EAF0A3EB55
:0E0A0200F0740CC0E0E4C0E090000075F0005D
:0E0A1000122683AA82AB831581158190000CFB
:0D0A1E00EAF0A3EBF0120698740EC0E0742D
:0A0A2B0000C0E07400C0E09000007D
:0A0A35001227F215811581158122A8
:0E0A3F00AA8290000BEAF0740CC0E0E4C0E064
:0E0A4D0090000075F000122683AA82AB83157C
:0E0A5B0081158190000CEAF0A3EBF0120698D2
:0A0A6900740EC0E07400C0E07400D9
:0E0A7300C0E09000001227F215811581158158
:010A81002252
:0A0A8200C00C85810CAA82AB837CB6
:0E0A8C0007C002C003C00412017BAD82AE831E
:0E0A9A00D004D003D002EAC39DF582EB9EF596
:0D0AA80083C004122970AA82AB83D004A879
:0C0AB5000C18181886057E00C3ED9AEEA0
:0D0AC10064808BF063F08095F050027C0A99
:050ACE008C82D00C2217
:090AD3007A01E530B402027A0751
:030ADC008A8222E9
:090ADF00E530B402047A07801727
:0C0AE800E52FB4060B7A06C00212036F63
:040AF400D0028007A5
:070AF800120157AB828B02D3
:030AFF008A8222C6
:0E0B0200AA827B0E20A10CE4A2B433FCB50243
:030B10000280025E
:020B13007B0F56
:030B15008B8222AE
:0A0B1800C00C85810CC082C083C0B0
:0E0B2200F07D077E007B0030A40630A50302A4
:020B30000D9224
:0E0B3200758204C003C006120278D006D003FC
:0B0B4000C003C006120641D006D0031F
:060B4B00EE6003020D90B4
:0D0B5100C00675A61E75A6E1C003C0061201
:0E0B5E0006A9D006D003C0031201BEAE82D09D
:0C0B6C0003A80C0886820886830886F027
:0D0B7800EE1229575401D0066045C006A8B2
:0B0B85000C0886820886830886F012A8
:0C0B900029F2FE5402D006602EC006A818
:0B0B9C000C0886820886830886F01291
:0C0BA70029F2FE5404D0066017C006A816
:0B0BB3000C0886820886830886F0127A
:090BBE0029F2FE5408D006700271
:020BC7007E01AD
:0E0BC900C006900003E0FEA3E0FFC003749698
:0E0BD700C0E08E828F83120A82AE821581D01A
:080BE500038E05E4BD0A0104C2
:070BED00D0067003020C7337
:0E0BF400C006C003C00612017BD006D00390DD
:0E0C02000001E0FFA3E0FEC0037496C0E08F87
:0E0C1000828E83120A82AE821581D0038E0579
:050C1E00E4BD0A010421
:0E0C2300D0066048C006C003C00612017BD098
:0E0C310006D003900005E0FFA3E0FEC00374B0
:0E0C3F0096C0E08F828E83120A82AE821581EB
:090C4D00D0038E05E4BD0701048B
:080C5600D00660047B09801741
:0E0C5E00C003C005C00612017BD006D005D031
:030C6C00038006FC
:040C6F007B0780027D
:020C73007B08FC
:050C7500BD0702800331
:030C7A00020D7DEB
:0E0C7D00758204C003C006120278D006D003B0
:060C8B0030A603020B4B32
:0B0C910075270075820AC003C0061220
:0B0C9C000278D006D003E4BB0701047F
:060CA700FFE4BB0801049C
:060CAD00FCE4BB09010498
:010CB300FD43
:060CB40030A603020B4B09
:0C0CBA0075A61E75A6E17481252750EE7A
:0B0CC600EF7008EC7011ED701A802236
:080CD100900001E533F0A3E5FA
:040CD90034F080165D
:080CDD00900003E533F0A3E5EC
:040CE50034F0800A5D
:080CE900900005E533F0A3E5DE
:020CF10034F0DD
:0E0CF300C007C003C004C005740CC0E0E4C01C
:0E0D0100E090000075F000122683AF82AA83F6
:0E0D0F0015811581D005D004D00390000CEFA3
:0D0D1D00F0A3EAF0C003C004C005C0071237
:0E0D2A000698D007D005D004D003C003C00443
:0C0D3800C005C007740EC0E07400C0E0ED
:0C0D44007400C0E09000001227F215813E
:0E0D500015811581D007D005D004D0037E0197
:0E0D5E00758200C003C004C005C006C00712A5
:0E0D6C000278D007D006D005D004D003D007FF
:030D7A00020CB4B4
:0E0D7D00758200C003C006120278D006D003B3
:050D8B00D2C1020B4B78
:020D90007D13D1
:0D0D9200758200C005120278D0058D8285A3
:050D9F000C81D00C22C4
:0A0DA400C00C85810CAA827B07EACF
:070DAE0030E004EA20E23608
:0B0DB500C00274FFC0E07401C0E074D5
:0A0DC00000C0E0E4C0E07403C0E0EE
:0A0DCA007400C0E0E4C0E0E50C2472
:0E0DD400FBF886820886830886F0120544E547
:090DE2008124F9F581D0027B00A7
:080DEB00EA30E104EA20E332E2
:0A0DF30074FFC0E07405C0E0740056
:0A0DFD00C0E0E4C0E07403C0E0743D
:0A0E070000C0E0E4C0E0E50C24FBAD
:0E0E1100F886820886830886F0120544E58183
:060E1F0024F9F5817B00BF
:050E25008B82D00C22BD
:0A0E2A00C00CE581F50C240FF581E2
:0A0E3400A80C08087600A80C0808B6
:0C0E3E0008E4F6FBE50C2404F87600E55F
:0A0E4A000C2405F87601E50C2406DF
:0E0E5400F8760075A707D2AFC003120198D040
:0E0E620003C003120117D003C003120190D089
:0E0E700003C003120134D003C00312013ED0B0
:0E0E7E0003C003120186D003E4A2963325E0E0
:0C0E8C00FFE4A29733FE2FF532758200C0
:0E0E9800C003120278D003C2C1C290C29120E2
:090EA600A207C003120754D00397
:0C0EAF00C0031205FAD003A80C08760B53
:0C0EBB00E50C24072402F888018807C019
:0C0EC70001E50C240EF9A700D001C001C9
:090ED300E50C240FF9A700D00181
:0C0EDC00C000A80C08C3741096D0005091
:040EE800030221C31D
:0C0EEC00C000A80C0886F0D000E5F0243F
:0C0EF8000A83C0E0E5F0241483C0E0226F
:020F0400C3CB5D
:020F0600837CEA
:020F0800A3C381
:020F0A0048FCA1
:020F0C003C1C8B
:020F0E00F926C2
:020F10005D3B47
:020F1200A8260F
:010F140027B5
:020F15002110A9
:020F17001117B0
:020F19001F2196
:020F1B001718A5
:020F1D001D1B9A
:020F1F001E0FA3
:020F21001016A8
:020F2300201894
:010F250011BA
:0E0F2600C007C003C000C00112065FAF82D03A
:0C0F340001D000D003C000E50C240DF833
:0C0F4000A607D000C000E50C240DF8E46A
:040F4C00B6070104DF
:0E0F5000D000D0076066C003C007C000C0011B
:0E0F5E00120641D001D000D007D003758200EA
:0E0F6C00C003C007C000C001120866D001D04B
:0E0F7A0000D007D00390000BE024FF9290758A
:0E0F88008201C003C007C000C001120260D089
:0C0F960001D000D007D003C000A80C0858
:0E0FA2007601D000758200C003C007C000C0F9
:0C0FB00001120278D001D000D007D0035D
:0C0FBC00C000E50C240DF8B6060280050C
:050FC800D0000221C56C
:0C0FCD00D000C000A80C080806D000C02E
:0A0FD90000A80C0808B6030280040B
:040FE300D000803783
:0E0FE700D000C003C007C000C001120641D0F8
:0E0FF50001D000D007D00375821EC003C007D4
:0E100300C000C00112029CD001D000D007D066
:0B10110003C000A80C08760CD0000201
:02101C0021C5EC
:0E101E00C003C007C000C001120641D001D0BF
:0E102C0000D007D003758201C003C007C000CA
:0E103A00C001120260D001D000D007D003C068
:0E10480003C007C000C0011205FAD001D0009D
:07105600D007D0030221C501
:0E105D00C007C286C003C000C0011201BEAFB2
:0E106B0082D001D000D0038F06EE5401D007D2
:0E107900600FEE30E10BEE30E207EE30E303E5
:031087000221C57E
:0C108A00C000A80C08087600D000758299
:0E10960000C003C007C000C00112029CD001C0
:0E10A400D000D007D003C291C003C007C00027
:0E10B200C0011205FAD001D000D007D003C053
:0B10C00000A80C08760BD0000221C530
:0C10CB00C007C000A80C08087600D00088
:0C10D700E50C2407FF7D007C40C003C036
:0C10E30007C000C00174FFC0E07403C02F
:0A10EF00E07400C0E0E4C0E074010A
:0C10F900C0E07400C0E0E4C0E08F828D15
:0E110500838CF0120544E58124F9F581D001B8
:0C111300D000D007D003C000A80C087664
:08111F0002D000D0070221C537
:0C112700C007C000A80C08087600D0002B
:0C113300E50C2407FC7D007F40C003C0D9
:0C113F0007C000C00174FFC0E07403C0D2
:0A114B00E07400C0E0E4C0E07407A7
:0C115500C0E07400C0E0E4C0E08C828DBB
:0E116100838FF0120544E58124F9F581D00159
:0C116F00D000D007D003C000A80C087608
:08117B0002D000D0070221C5DB
:0E118300C007C003C007C000C001120ADFACE5
:0C11910082D001D000D007D003C000E5E0
:0C119D000C240DF8A604D000860408867F
:0E11A9000518900007E0FFA3E0FEECB5070874
:0811B700EDB50604740180018E
:0111BF00E44B
:0711C000D007700302138E3B
:0711C700E537B401028003CB
:0311CE0002138E7B
:0E11D10075821EC003C007C000C00112027864
:0E11DF00D001D000D007D00375821EC003C01F
:0E11ED0007C000C001120286D001D000D0075A
:0C11FB00D003C000E50C240DF8B607027C
:02120700800560
:05120900D0000212906C
:0C120E00D000E50C24072402FCC000A85E
:0E121A00048682088683D000C003C007C0008F
:0E122800C0017414C0E0120A82AC821581D09D
:0D12360001D000D007D003BC070EC000A8F7
:0A1243000C08760AD0007537008011
:01124D00425E
:0C124E00E50C2407FC7D007E40C003C0BE
:0C125A0007C000C00174FFC0E07407C0B2
:0A126600E07400C0E0E4C0E074038F
:0C127000C0E07400C0E0E4C0E08C828D9F
:0E127C00838EF0120544E58124F9F581D0013E
:06128A00D000D007D003E4
:0C129000C000E50C240DF8B60602800436
:04129C00D000806D91
:0E12A000D000C003C007C000C001120641D03C
:0E12AE0001D000D007D003758201C003C00735
:0E12BC00C000C001120260D001D000D007D0E7
:0C12CA0003E50C2407FC7D007E40C003FF
:0C12D600C007C000C00174FFC0E0740736
:0A12E200C0E07400C0E0E4C0E07456
:0A12EC0003C0E07400C0E0E4C0E0BD
:0E12F6008C828D838EF0120544E58124F9F57B
:0913040081D001D000D007D00314
:0C130D00C000E50C240DF8B605028005B8
:05131900D00002150DDB
:0E131E00D000C003C007C000C001120641D0BD
:0E132C0001D000D007D003758201C003C007B6
:0E133A00C000C001120260D001D000D007D068
:0C13480003E50C2407FC7D007E40C00380
:0C135400C007C000C00174FFC0E07407B7
:0A136000C0E07400C0E0E4C0E074D7
:0A136A0003C0E07400C0E0E4C0E03E
:0E1374008C828D838EF0120544E58124F9F5FC
:0C13820081D001D000D007D00302150D6F
:0C138E00C000E50C240DF8B60702800535
:05139A00D0000214C1A7
:0C139F00D000C000E50C2404F8B60102E8
:0213AB008004BC
:0413AD00D000804E9E
:0E13B100D000758201C003C007C000C0011249
:0D13BF000260D001D000D007D003C000E5CF
:0A13CC000C2404F87600D000E50CB4
:0E13D6002407FC7D007E40C003C007C000C09D
:0E13E4000174FFC0E08C828D838EF01205B57F
:0D13F2001581D001D000D007D0030214C136
:0E13FF00C007870409870519900003E0FEA3CC
:0E140D00E0FFECB50608EDB5070474018001A0
:01141B00E4EC
:0C141C00D0076009C000A80C087608D0BA
:0114280000C3
:0E142900C001C000A8078604088605D0009008
:0E1437000001E0FEA3E0FAECB50608EDB502F8
:051445000474018001A8
:01144A00E4BD
:0C144B00D0016009C000A80C087607D092
:011457000094
:0E145800900005E0FAA3E0FC900003E0FDA385
:0E146600E0FEEAC39DF582EC9EF583C003C054
:0E14740007C000C001122970AA82AC83D0010B
:0E148200D000D007D003C374C89A74808CF0D9
:0C14900063F08095F0502AC000E50C24A9
:0D149C000EF88600860208860418D0009025
:0E14A9000005E0FDA3E0FEEAB5050DECB5067A
:0A14B70009C000A80C087609D00057
:0C14C100C000E50C240DF8B60602800403
:0414CD00D000800BC0
:0B14D100D000C000A80C087603D0007B
:0C14DC00C000E50C240DF8B605028004E9
:0414E800D00080218F
:0E14EC00D000758204C003C007C000C001120A
:0D14FA000278D001D000D007D003C000A8B8
:061507000C087603D00081
:0E150D00C003C007C000C0011201F4AA82D0C2
:0C151B0001D000D007D003BA0178E537FA
:0E1527007074C003C007C000C001120641D09E
:0E15350001D000D007D003758201C003C007AB
:0E154300C000C001120260D001D000D007D05D
:0C15510003E50C2407FA7C007D40C00379
:0C155D00C007C000C00174FFC0E07407AC
:0A156900C0E07400C0E0E4C0E074CC
:0A15730001C0E07400C0E0E4C0E035
:0E157D008A828C838DF0120544E58124F9F5F5
:0C158B0081D001D000D007D003C000A820
:061597000C087602D000F2
:0C159D00C000E50C240FF8860086020850
:0E15A900860418D000900003E0FDA3E0FEEAE7
:0915B700B50506ECB5060280033F
:0315C0000221C540
:0E15C300C007C000C0011201BEAA82D001D034
:0E15D10000D0078A03EB30E007EB30E10302A5
:0215DF0021C524
:0C15E100C000E50C2406F8B601028004EE
:0415ED00D000801892
:0C15F100D000C000A80C080808A603D019
:0C15FD0000C000E50C2406F87600D000C9
:0E160900C003C007C000C001120659D001D0B6
:0E16170000D007D003C003C007C000C00112FE
:0D162500035BD001D000D007D003C000A8A7
:091632000C08760DD0000221C560
:0E163B00C003C007C000C001120ADFAA82D09F
:0C16490001D000D007D003C000E50C2445
:0C1655000DF8A602D000C000E50C240D2A
:06166100F8B60702800547
:05166700D00002170E87
:0C166C00D000EB20E04BE50C2407FA7CDA
:0E167800007D40C003C007C000C00174FFC069
:0A168600E07401C0E07400C0E0E46D
:0A169000C0E07403C0E07400C0E085
:0E169A00E4C0E08A828C838DF0120544E58165
:0E16A80024F9F581D001D000D007D003C00096
:0716B600A80C087602D00029
:0C16BD00EB20E14BE50C2407FA7C007DDB
:0E16C90040C003C007C000C00174FFC0E07441
:0A16D70005C0E07400C0E0E4C0E0CC
:0A16E1007403C0E07400C0E0E4C030
:0E16EB00E08A828C838DF0120544E58124F99B
:0D16F900F581D001D000D007D003C000A8BB
:061706000C087602D00081
:02170C00D28683
:0C170E00C000E50C240DF8B606028004B3
:04171A00D000800B70
:0B171E00D000C000A80C087603D0002B
:0C172900C000E50C240DF8B60502800598
:05173500D0000221C5F7
:0C173A00D000C000A80C087603D000020C
:0217460021C5BB
:0C174800E50C2407FA7C007D40C003C0C3
:0E17540007C000C00174FFC0E08A828C838D44
:0E176200F01205B51581D001D000D007D003DC
:0C177000C000A80C087602D0000221C5C1
:0C177C00C000E50C2404F87601D000C089
:0E17880003C007C000C001120641D001D0000E
:0E179600D007D003758201C003C007C000C099
:0E17A40001120260D001D000D007D003C000B7
:0A17B200A80C080806D000C000A82B
:0617BC000C0808B6030052
:0E17C200D000402C75821EC003C007C000C0BE
:0E17D0000112029CD001D000D007D003C0004F
:0A17DE00A80C087604D000C000A893
:0A17E8000C08087600D0000221C5AD
:0C17F200E50C2407FA7C007D40C003C019
:0E17FE0007C000C00174FFC0E08A828C838D9A
:0E180C00F01205B51581D001D000D007D00331
:0C181A00C000A80C087602D0000221C516
:0E182600C286758200C003C007C000C0011258
:0E1834000B02AA82D001D000D007D003C00062
:0C184200E50C240DF8A602D000C000E563
:09184E000C240DF8B60E02800412
:04185700D000803607
:0C185B00D000E50C24072402FAC000A80D
:0E186700028682088683D000C003C007C0003E
:0E187500C00174FFC0E01204A61581D001D09E
:0C18830000D007D003C000A80C087602BB
:02188F00D00087
:0E189100C003C007C000C0011201F4AA82D03B
:0C189F0001D000D007D003BA0102800382
:0318AB000221C552
:0C18AE00E50C2407FA7C007D40C003C05C
:0C18BA0007C000C00174FFC0E07407C04C
:0A18C600E07400C0E0E4C0E074012B
:0C18D000C0E07400C0E0E4C0E08A828C3C
:0E18DC00838DF0120544E58124F9F581D001D9
:0C18EA00D000D007D003C000A80C087686
:0618F60002D0000221C532
:0C18FC00C000A80C08087600D000C00056
:0C190800A80C080808E620E004D00080CD
:0119140014BE
:0C191500D000C000A80C080808E630E173
:0619210005D0000219E5EB
:02192700D000EE
:0E192900900009E0FAA3E0FC8A82C003C00728
:0E193700C000C0017401C0E01202B2AA821505
:0D19450081D001D000D007D003BA0C4DE5D1
:0C1952000C2407FA7C007D40C003C00795
:0C195E00C000C00174FFC0E07407C0E0CE
:0A196A007400C0E0E4C0E07401C0A6
:0C197400E07400C0E0E4C0E08A828C83D4
:0E1980008DF0120544E58124F9F581D001D0E7
:0C198E0000D007D003C000A80C087602AF
:04199A00D0008047B2
:0C199E00E50C2407FA7C007D40C003C06B
:0A19AA0007C000C0017403C0E07420
:0A19B40000C0E0E4C0E07401C0E0F0
:0C19BE007400C0E0E4C0E08A828C838DDD
:0E19CA00F0120373E58124FAF581D001D000FC
:0C19D800D007D003C000A80C08760FD088
:0119E4000002
:0C19E500C000A80C080808E630E205D09D
:0419F10000021AB125
:0E19F500D000C003C007C000C0011201BEAA8E
:0E1A030082D001D000D007D0038A06EE20E288
:0C1A11004BE50C2407FA7C007D40C0036C
:0C1A1D00C006C007C000C0017403C0E098
:0A1A29007400C0E0E4C0E07401C0E6
:0C1A3300E07400C0E0E4C0E08A828C8314
:0E1A3F008DF0120373E58124FAF581D001D0F9
:0C1A4D0000D007D006D003C000A80C0891
:041A5900760FD00034
:0C1A5D00EE20E350C000A80C080808E6CA
:0C1A690054F7F6E50C2407FA7C007D40E1
:0C1A7500C003C007C000C0017405C0E041
:0A1A81007400C0E0E4C0E07401C08E
:0C1A8B00E07400C0E0E4C0E08A828C83BC
:0E1A97008DF0120373E58124FAF581D001D0A1
:0C1AA50000D007D003A80C08760FD0007A
:0E1AB100C003C007C000C0011201F4AA82D019
:0C1ABF0001D000D007D003BA0102800360
:031ACB000221C530
:0C1ACE00E50C2407FA7C007D40C003C03A
:0C1ADA0007C000C00174FFC0E07407C02A
:0A1AE600E07400C0E0E4C0E0740109
:0C1AF000C0E07400C0E0E4C0E08A828C1A
:0E1AFC00838DF0120544E58124F9F581D001B7
:0C1B0A00D000D007D003C000A80C087663
:061B160002D0000221C50F
:0C1B1C00C000A80C08087600D000C00033
:0C1B2800A80C080808E620E104D00080AA
:011B3400149C
:0C1B3500D000C000A80C080808E630E052
:061B410005D000021C05A6
:021B4700D000CC
:0E1B4900900009E0FAA3E0FC8A82C003C00706
:0E1B5700C000C0017402C0E01202B2AA8215E2
:0D1B650081D001D000D007D003BA0C4DE5AF
:0C1B72000C2407FA7C007D40C003C00773
:0C1B7E00C000C00174FFC0E07407C0E0AC
:0A1B8A007400C0E0E4C0E07405C080
:0C1B9400E07400C0E0E4C0E08A828C83B2
:0E1BA0008DF0120544E58124F9F581D001D0C5
:0C1BAE0000D007D003C000A80C0876028D
:041BBA00D000804790
:0C1BBE00E50C2407FA7C007D40C003C049
:0A1BCA0007C000C0017403C0E074FE
:0A1BD40000C0E0E4C0E07405C0E0CA
:0C1BDE007400C0E0E4C0E08A828C838DBB
:0E1BEA00F0120373E58124FAF581D001D000DA
:0C1BF800D007D003C000A80C08760FD066
:011C040000DF
:0C1C0500C000A80C080808E630E305D079
:041C110000021CD1E0
:0E1C1500D000C003C007C000C0011201BEAA6B
:0E1C230082D001D000D007D0038A06EE20E365
:0C1C31004BE50C2407FA7C007D40C0034A
:0C1C3D00C006C007C000C0017403C0E076
:0A1C49007400C0E0E4C0E07405C0C0
:0C1C5300E07400C0E0E4C0E08A828C83F2
:0E1C5F008DF0120373E58124FAF581D001D0D7
:0C1C6D0000D007D006D003C000A80C086F
:041C7900760FD00012
:0C1C7D00EE20E250C000A80C080808E6A9
:0C1C890054FBF6E50C2407FA7C007D40BB
:0C1C9500C003C007C000C0017401C0E023
:0A1CA1007400C0E0E4C0E07405C068
:0C1CAB00E07400C0E0E4C0E08A828C839A
:0E1CB7008DF0120373E58124FAF581D001D07F
:0C1CC50000D007D003A80C08760FD00058
:0E1CD100C003C007C000C0011201F4AA82D0F7
:0C1CDF0001D000D007D003BA010280033E
:031CEB000221C50E
:0C1CEE00E50C2407FA7C007D40C003C018
:0C1CFA0007C000C00174FFC0E07407C008
:0A1D0600E07400C0E0E4C0E07401E6
:0C1D1000C0E07400C0E0E4C0E08A828CF7
:0E1D1C00838DF0120544E58124F9F581D00194
:0C1D2A00D000D007D003C000A80C087641
:061D360002D0000221C5ED
:0C1D3C00D286C000A80C08087600D00079
:0E1D4800C003C007C000C0011201BEAA82D0B5
:0C1D560001D000D007D003C000A80C088A
:0C1D62000808A602D000E50C2403FA7C5F
:0E1D6E00007D408A828C838DF0C003C007C0C8
:0E1D7C0000C001120B18AA82D001D000D007BF
:0C1D8A00D003C000E50C240DF8A602D028
:0C1D960000C000E50C240DF8B61302801C
:011DA200043C
:041DA300D000800DDF
:0C1DA700D000C000E50C2405F87600D048
:011DB300002F
:0C1DB400C000E50C2405F8B60102800414
:041DC000D000805F70
:0E1DC400D000900003E0FAA3E0FC8A828C833A
:0E1DD200C003C007C000C001120207AA82D0E1
:0C1DE00001D000D007D003C000E50C24A7
:0C1DEC000DF8A602D000C000E50C240D8C
:061DF800F8B610028004A1
:041DFE00D000802170
:0E1E0200D00075821EC003C007C000C00112D0
:0D1E1000029CD001D000D007D003C000A874
:061E1D000C08760ED00057
:0C1E2300E50C2407FA7C007D40C003C0E1
:0E1E2F0007C000C001C002C004C005C000A86A
:0C1E3D000C0808088682D000120DA4AA30
:0E1E490082158115811581D001D000D007D0FF
:0C1E570003C000E50C240DF8A602D0002A
:0C1E6300C000E50C240DF8E6D00070145F
:0C1E6F00C000E50C2405F87601D000C08E
:081E7B0000A80C087602D0005B
:0E1E8300C003C007C000C0011201F4AA82D043
:0C1E910001D000D007D003BA010280038A
:031E9D000221C55A
:0C1EA000C000E50C2405F87601D000E538
:0C1EAC000C2407FA7C007D40C003C00736
:0C1EB800C000C00174FFC0E07407C0E06F
:0A1EC4007400C0E0E4C0E07403C045
:0C1ECE00E07400C0E0E4C0E08A828C8375
:0E1EDA008DF0120544E58124F9F581D001D088
:0C1EE80000D007D003C000A80C08760250
:051EF400D0000221C531
:0C1EF900D286C000A80C08087600D000BB
:0E1F0500C003C007C000C0011201BEAA82D0F6
:0C1F130001D000D007D003C000A80C08CB
:0C1F1F000808A602D000E50C2407FC7D99
:0E1F2B00007E40C003C007C000C001C004C05B
:0E1F390005C0068A82120DA4AA8215811581A8
:0D1F47001581D001D000D007D003C000E507
:0B1F54000C240DF8A602D000C000E530
:0C1F5F000C240DF8E6D00060030221C540
:0E1F6B00758200C003C007C000C001120278DA
:0E1F7900D001D000D007D003758200C003C095
:0E1F870007C000C001120286D001D000D007B2
:0C1F9500D003C000A80C087602D00002A7
:021FA10021C558
:0C1FA300D286C000A80C08087600D00010
:0E1FAF00C003C007C000C0011201BEAA82D04C
:0C1FBD0001D000D007D003C000A80C0821
:0C1FC9000808A602D000E50C2407FC7DEF
:0E1FD500007E40C003C007C000C001C004C0B1
:0E1FE30005C0068A82120DA4AA8215811581FE
:0D1FF1001581D001D000D007D003C000E55D
:0B1FFE000C240DF8A602D000C000E586
:0C2009000C240DF8E6D000702BF582C00E
:0E20150003C007C000C00112029CD001D00021
:0C202300D007D003C291C000E50C2404DB
:0C202F00F87600D000C000A80C08760273
:02203B00D000D3
:0E203D00C003C007C000C0011201F4AA82D087
:0C204B0001D000D007D003BA01028003CE
:032057000221C59E
:0C205A00E50C2407FA7C007D40C003C0A8
:0C20660007C000C00174FFC0E07407C098
:0A207200E07400C0E0E4C0E0740375
:0C207C00C0E07400C0E0E4C0E08A828C88
:0E208800838DF0120544E58124F9F581D00125
:0C209600D000D007D003C000A80C0876D2
:0620A20002D0000221C57E
:0E20A800D286C003C007C000C0011201BEAA4C
:0C20B60082D001D000D007D003C000A8E9
:0A20C2000C080808A602D000E52B68
:0D20CC00702DF582C003C007C000C00112D6
:0E20D900029CD001D000D007D003C291C000FD
:0C20E700E50C2406F87601D000C000A82B
:0820F3000C087610D000806398
:0C20FB00E50C2407FC7D007E40C003C003
:0E21070007C000C001C004C005C0068A8212D5
:0E2115000DA4AA82158115811581D001D0007C
:0C212300D007D003C000E50C240DF8A686
:0C212F0002D000C000E50C240DF8E6D042
:0E213B00007020F582C003C007C000C0011272
:0E214900029CD001D000D007D003C291C0008C
:07215700A80C087602D0007D
:0E215E00C003C007C000C0011201F4AA82D065
:0C216C0001D000D007D003BA014FE50CF1
:0E2178002407FA7C007D40C003C007C000C0F1
:0A2186000174FFC0E07407C0E074AC
:0A21900000C0E0E4C0E07403C0E00A
:0C219A007400C0E0E4C0E08A828C838DF9
:0E21A600F0120544E58124F9F581D001D00046
:0C21B400D007D003C000A80C087602D0B1
:0321C0000080029A
:0221C30080FE9C
:0C21C50075A61E75A6E130A2030222637D
:0E21D100758200C003C007C000C00112027872
:0E21DF00D001D000D007D003D2C1C003C0078A
:0E21ED00C000C001120641D001D000D007D0C2
:0D21FB0003758201C003C007C000C00112BF
:0E2208000260D001D000D007D003758201C063
:0E22160003C007C000C001120866D001D0004E
:0E222400D007D003758200C003C007C000C001
:0E22320001120278D001D000D007D003D2C133
:0B22400020A20875A61E75A6E180F51F
:0E224B00758201C003C007C000C0011202600E
:0A225900D001D000D007D003C2C1AD
:0622630030A3030222F883
:0E226900C003C007C000C001120641D001D062
:0E22770000D007D003758200C003C007C0006E
:0E228500C001120278D001D000D007D003D2E1
:0D229300C1758201C003C007C000C0011268
:0E22A0000260D001D000D007D003C003C007F9
:0E22AE00C000C0011209F4D001D000D007D04A
:0D22BC0003758200C003C007C000C00112FE
:0C22C9000278D001D000D007D003D2C1B1
:0B22D50020A30875A61E75A6E180F589
:0E22E000758201C003C007C000C00112026079
:0A22EE00D001D000D007D003C2C118
:0622F80030A603020EDC1B
:0E22FE00C003C007C000C001120641D001D0CD
:0C230C0000D007D003752700758200C0C8
:0E23180003C007C000C001120278D001D0003F
:0E232600D007D003D2C1758201C003C007C02A
:0E23340000C001120260D001D000D007D0031B
:0A23420020A62C74812527501E757B
:0C234C002700B290E4A29033F582C00399
:0E235800C007C000C001120A3FD001D000D063
:0323660007D0039A
:0823690075A61E75A6E180D1E6
:09237100C2C1020EDC850C81D012
:02237A000C2233
:0E237C00C0E0C0F0C082C083C002C003C00435
:0C238A00C005C006C007C000C001C02094
:0A239600C0D075D000E53BC39533BD
:0923A000F582E53C9534F5831249
:0E23A9002970AA82AB83C374029A74808BF0F1
:0A23B70063F08095F040030224203B
:0423C10085333B85A0
:0423C500343CE4F5CB
:0423C9003DF53EE5BB
:0A23CD0030B40325E525B40114E542
:0C23D700FB246F400AC2A91206417525C4
:0323E30000801067
:0423E60015FB800C57
:0A23EA00E5FB24DF4004C2A98002D5
:0223F40015FBD7
:0A23F600E530B40425E525B4011418
:0C240000E5FC246F400AC2A912064175D9
:04240C002500801017
:0424100015FC800C2B
:0A241400E5FC24DF4004C2A98002A9
:02241E0015FCAB
:0C242000D0D0D020D001D000D007D006D2
:0E242C00D005D004D003D002D083D082D0F0EF
:03243A00D0E032BD
:0E243D00C0E0C0F0C082C083C002C003C00473
:0C244B00C005C006C007C000C001C020D2
:0A245700C0D075D0000527E52FB4B2
:0424610001028037BD
:09246500052474D32524502FE551
:07246E002DC39533F582E553
:062475002E9534F58312E0
:07247B00297085824785836B
:0724820048C3E5479405E59E
:0A24890048648094805003752F060C
:0424930085332D85DB
:03249700342E756B
:02249A0024001C
:08249C00E529600E053FC3E5D0
:0824A4003F95294005B2C17506
:0224AC003F00EF
:0A24AE00E52A6010C2900540C3E566
:0824B80040952A4005B287752A
:0224C0004000DA
:0824C200E52B603E0541C3E576
:0A24CA0041952B400BC290B291B275
:0624D400C1B28775410052
:0724DA000543E4B5430205D0
:0124E10044B6
:0A24E200C3E5439436E5449401403D
:0A24EC0017C291C2C1E4F543F544A4
:0524F600F541F52B90FB
:0924FB00000BE024FF9290D2874F
:08250400E52C60130542C3E55C
:0A250C0042952C400AC291C2C1752D
:052516002C00754200DD
:09251B00052374C32523500505B6
:0425240028752300F3
:072528000545E4B54502057D
:01252F004665
:0A253000C3743695457401954650BA
:0B253A0014C2A7C374549545740195AA
:09254500465007D2A7E4F545F564
:01254E004646
:0C254F00D0D0D020D001D000D007D006A2
:0E255B00D005D004D003D002D083D082D0F0BF
:03256900D0E0328D
:0E256C00C0E0C0F0C082C083C002C003C00443
:0C257A00C005C006C007C000C001C020A2
:0E258600C0D075D000E5D85418700302266648
:0E259400E4A2963325E0FAE4A29733FB2AF581
:0A25A2004975F003A42495FAE4340F
:0B25AC002AFB8A828B83A3E493FCE5EA
:0925B70032B5041C153374FFB5A4
:0425C0003302153499
:0625C400754B00054CE51B
:0825CA004CB4FF0675380175E1
:0225D2004C00BB
:0325D40085493204
:0C25D7008A828B83A3A3E493FAE532B55B
:0A25E300021E74012533F533E435C0
:0425ED0034F5347518
:0525F1004C00054BE564
:0825F6004BB4FF0675380075B7
:0225FE004B0090
:03260000854932D7
:09260300E526B4012FE533C3956F
:06260C0035F582E534956E
:0C26120036F583122970AA82AB83C374D2
:0E261E00F49A74818BF063F08095F0400C7597
:06262C003802754B007539
:052632004C00120656E9
:06263700E533B53508E5AE
:05263D0034B536031264
:0226420006414F
:0C264400C2DBC2DC30D81BE54AB4010741
:06265000E4F533F534F55A
:012656004A39
:08265700E531B4010375310205
:07265F00C2D8D2C1752C0F97
:0C266600D0D0D020D001D000D007D0068A
:0E267200D005D004D003D002D083D082D0F0A7
:03268000D0E03275
:0C2A950000010201030002000303020123
:0E2AA100474154455F56455253494F4E3A2027
:0E2AAF002449643A205F676174652E632C76BB
:0E2ABD0020312E323920323031302F30332F7D
:0E2ACB0032392030393A35363A333620746FBE
:0B2AD9006D61737A20457870202400A6
:0A268300C00C85810CC082C083C02A
:0C268D00F0E5812407F581E50C2406F837
:0926990076FF0876FF7F007A004D
:0C26A2008F038A04E50C24FCF8C3EB96BF
:0C26AE00EC08965078A80C08EF26FBEA18
:0D26BA000836FC0886058B828C838DF0129B
:0C26C70029F2FBE50C240604F88604E46C
:0C26D300FDFEEB6204EE6205EC24E4F571
:0A26DF0082ED342AF583E493FBE555
:0A26E9000C2404F8A603087600E5AF
:0A26F3000C2404F87D00088606E5BB
:0C26FD000C2406F88604E4FB6205EC6285
:0C27090006E50C2404F886037C00EB427B
:0C27150005EC4206E50C2406F8A60508B9
:07272100A6060FBF00010A2C
:032728000226A2E4
:0B272B00E50C2406F8868208868385F2
:052736000C81D00C2213
:0E2AE40000C0C101C30302C2C60607C705C574
:0E2AF200C404CC0C0DCD0FCFCE0E0ACACB0BF8
:0E2B0000C90908C8D81819D91BDBDA1A1EDE5D
:0E2B0E00DF1FDD1D1CDC14D4D515D71716D61D
:0E2B1C00D21213D311D1D010F03031F133F3B7
:0E2B2A00F23236F6F737F53534F43CFCFD3D5B
:0E2B3800FF3F3EFEFA3A3BFB39F9F83828E839
:0E2B4600E929EB2B2AEAEE2E2FEF2DEDEC2CD9
:0E2B5400E42425E527E7E62622E2E323E1213B
:0E2B620020E0A06061A163A3A26266A6A7673F
:0E2B7000A56564A46CACAD6DAF6F6EAEAA6AC5
:0E2B7E006BAB69A9A86878B8B979BB7B7ABA45
:0E2B8C00BE7E7FBF7DBDBC7CB47475B577B7CF
:0E2B9A00B67672B2B373B17170B050909151B3
:0E2BA8009353529296565797559594549C5CB1
:0E2BB6005D9D5F9F9E5E5A9A9B5B9959589851
:0E2BC400884849894B8B8A4A4E8E8F4F8D4D23
:0E2BD2004C8C44848545874746868242438367
:042BE000418180406F
:060103007508F07509FF0C
:07273B00740155D2F5822262
:05274200D310AF01C33C
:0E274700C0D0AA82AB83ACF075D2021229F288
:0B275500FAF58275D200D0D092AF22BE
:0A276000C00C85810CD310AF01C33B
:0C276A00C0D0AA82AB83ACF075D202A8EC
:0C2776000C181818E612295775D250757F
:0C278200D2A0A80C1818188682D0D092A3
:04278E00AFD00C229A
:05279200D310AF01C3EC
:0E279700C0D0AA82AB83ACF075D2021229F238
:0E27A500FAA31229F2FB8A828B8375D200D030
:0427B300D092AF22EF
:0A27B700C00C85810CD310AF01C3E4
:0C27C100C0D0AA82AB83ACF075D202E558
:0C27CD000C24FCF8E6122957A308E612C1
:0C27D900295775D25075D2A0E50C24FCE5
:0C27E500F88682088683D0D092AFD00C1A
:0127F10022C5
:0A27F200C00C85810CD310AF01C3A9
:0C27FC00C0D0AA82AB83E50C24FCF88658
:06280800040886057E00B5
:0C280E00E50C24FBF8C3EE96501F8C82F2
:0E281A008D83E0FFA3AC82AD8375D2028A826B
:0E2828008B83EFF0A3AA82AB8375D2000E80E3
:01283600D7CA
:0C28370075D25075D2A0D0D092AFD00C5A
:012843002272
:0A284400C00C85810CD310AF01C356
:0C284E00C0D0AA82AB83E50C24FCF88605
:06285A00040886057E0063
:0C286000E50C24FBF8C3EE96501F75D267
:0E286C00028C828D83E0FFA3AC82AD8375D217
:0E287A00008A828B83EFF0A3AA82AB830E80CC
:01288800D778
:0A28890075D200D0D092AFD00C221F
:06010900750AF0750BFF02
:0A289300C00C85810CD310AF01C307
:0C289D00C0D0AA82E50C24FAF88682E57F
:0B28A9000C24FA04F8868343A201E52A
:0A28B4000C24FCF88682E50C24FCDD
:0C28BE0004F8868353A2FE43A22074D9C4
:0928CA00C0E07428C0E0C00AC09F
:0628D3000B79098AE022E6
:0C28D90053A2DF85E082D0D092AFD00C7B
:0128E50022D0
:0E28E600C2ACC2BC4387805387BF43892075B4
:0E28F4008DF3D29EC29FD29CC299C298D28E02
:0129020022B2
:08290300AA82AB83ACF07D0059
:0E290B008A828B838CF0C002C003C004C0051A
:0E2919001229CAAE82AF83D005D004D003D0FD
:0E292700028D007900C3EE98EF648089F063A2
:0E293500F08095F0401BED2AFEE43BFF8C0085
:0B2943008E828F8388F01229F2F59934
:05294E0010990280FB5E
:032953000D80B53F
:01295600225E
:06006500E478FFF6D8FD6F
:080043007900E94400601B7A1A
:05004B0000902BE47899
:030050000E75A08A
:0A00530000E493F2A308B8000205D0
:08005D00A0D9F4DAF275A0FF4E
:0E29570020F71030F6118883A88220F507F6CD
:05296500A8837583004A
:01296A00224A
:03296B00F280F700
:02296E00F02255
:0E297000AA82E583FB33B3E433FC60068A04DD
:04297E008B0580073E
:07298200C3E49AFCE49BFD95
:052989008C828D832209
:08006B007800E84400600A7906
:030073000075A075
:0600760000E4F309D8FCD0
:08007C00780EE84400600C79E5
:0B00840001900000E4F0A3D8FCD9FAC2
:08298E0085821085831185F09C
:0429960012AD10AEC0
:04299A0011AF12A8BF
:03299E000EA90F70
:0929A1008802890318B8FF01192E
:0C29AA00EA4B60128D828E838FF0E50DE9
:0A29B600122957A3AD82AE8380E121
:0729C000851082851183855B
:0329C70012F022E9
:0A29CA00AA82AB83ACF07D007E0012
:0E29D4008A828B838CF01229F2FFA3AA82ABB9
:0B29E20083EF60070DBD00EA0E80E7E8
:0529ED008D828E8322A3
:0300360075814C85
:0A003900122A91E582600302011211
:0E29F20020F71430F6148883A88220F507E63B
:062A0000A883758300228B
:032A0600E280F774
:032A0900E4932231
:022A0C00E022C6
:0E2A0E00C2D5E58330E70DD2D5E4C39582F53D
:062A1C0082E49583F583BE
:0A2A2200E50E30E70BE4C3950DF557
:052A2C000DE4950EF51C
:012A31000E96
:0E2A3200122A4430D50BE4C39582F582E49558
:032A400083F58398
:012A43002270
:082A4400E50D450E60467A0124
:072A4C00E50D25E0F50DE5A5
:092A53000E334012F50EE58295E8
:0A2A5C000DE583950E40030A80E6A5
:032A6600C3E50EB7
:072A690013F50EE50D13F556
:012A70000D58
:0A2A7100C3E582950DF5F0E58395AD
:082A7B000E4005F58385F08291
:072A8300C3E50E13F50EE59B
:062A8A000D13F50DDAE169
:012A90002223
:042A91007582002228
:00000001FF
