:040000000200363292
:03000B0002236667
:0100130032BA
:03001B0002242795
:0100230032AA
:01002B0032A2
:030033000225564D
:08008F00753902753A00E4F531
:040097003BF53CF504
:04009B003DF53E757C
:06009F003F0075400075F2
:0600A5004100E4F542F504
:0400AB0043F544F5E0
:0400AF0045F5467558
:0600B3004900754A0175C9
:0600B9004B00754C0075C0
:0300BF0021827526
:0300C200222A757A
:0600C50023007524007504
:0600CB00250075260075FA
:0600D100270075280075F0
:0600D7002900752A0075E6
:0700DD002B00752C00E4F577
:0400E4002DF52E7553
:0600E8002F0175300275C6
:0700EE003100753204E4F556
:0500F50033F534E4F5D1
:0400FA0035F536752D
:0500FE00370075380217
:03010F00020112D8
:05011200120E2A80FE20
:0E011700D295D294758F0343D90443DB427511
:0C012500FB0043DC4275FC0043890275BE
:0301310030022277
:0A013400D29375DA21C2D8D2AE22B0
:0E013E00D296D29775DD3175DE31C2DBC2DCA0
:03014C00D2AE220E
:08014F00C2AE853882D2AE2257
:0E0157007A01C00212014FAB82D002BB02023D
:02016500800F09
:07016700E539B402028B39F7
:06016E00EBB5390280022E
:020174007A050A
:050176008B398A822292
:0A017B00C2AE853382853483D2AE14
:010185002257
:05018600D2DED28C2244
:05018B00C2DEC28C225F
:08019000438910D2ABD28E228C
:0E019800D280D281D282D283D284D2B4D2A0BD
:0D01A600D2A1D2A2D2A3D2A4D2A5D2A62269
:0A01B300C2AB752300752800D2AB23
:0101BD00221F
:0E01BE007AFFAB807C004303E0BBFF0280258C
:0201CC007D00B4
:0401CE000DBDFF0064
:0E01D200501DEC701A74E04580FB75A61E757A
:0701E000A6E1BBFF02800451
:0401E7008B0280E324
:0601EB007C017AFF80DDBB
:0301F1008A8222DD
:0C01F4001201BEAA827B00EA20E405751F
:0402000037017B0146
:030204008B8222C8
:0D020700AA82AB837C07C002C003C00412B2
:0E021400017BAD82AE83D004D003D002EAC3DA
:0E0222009DF582EB9EF583C004122951AA823D
:0E023000AB83D004C374969A74808BF063F095
:07023E008095F050027C10D6
:030245008C822286
:09024800AA82C2AB752700D2ABFB
:0C025100C3E5279A500875A61E75A6E1AB
:02025D0080F22D
:01025F00227C
:09026000AA82C0021201B3D0020F
:0C026900C3E5289A500875A61E75A6E192
:0202750080F215
:010277002264
:0B027800AA82C2ABEAF5297002C2C1E5
:03028300D2AB22D9
:0C028600AA82C2ABEAF52A700A90000BB5
:07029200E024FF9290D287E7
:03029900D2AB22C3
:0C029C00AA82C2ABEAF52B700A90000B9E
:0702A800E024FF9290D287D1
:0302AF00D2AB22AD
:0A02B200C00C85810CAA827B077C3A
:0E02BC0000C002C003C0041201B3D004D0037E
:0202CA00D00260
:0C02CC00EC7051C3E5289A40047C017BD3
:0102D800071E
:0E02D900C002C003C0041201F4AD82D004D0F4
:0A02E70003D002BD01047B0C7C0172
:0E02F100C002C003C0041201BEAD82D004D012
:0C02FF0003D002A80C181818E65D700D62
:0D030B00C002C0031201B3D003D0027C0079
:0803180075A61E75A6E180AC7C
:050320008B82D00C22CD
:07032500C00C85810C8582EC
:05032C003585833675E4
:0A033100300475FB00A80C18181822
:05033B0086FCD00C223D
:07034000C00C85810C8582D1
:050347003585833675C9
:0A034C003003A80C18181886FB7582
:05035600FC00D00C22A8
:0A035B00C2AB75240012017B8582FD
:050365002D85832E75BB
:05036A002F00D2AB22C0
:04036F00752F0122C3
:0A037300C00C85810CC082C083C05D
:0C037D00F0E50C24FBF886050886060855
:0E03890086078D828E838FF01229D3FDA3127A
:0C03970029D3FEA80C0886820886830883
:0C03A30086F0ED122938A3EE122938A8CC
:0C03AF000C08740226FDE40836FE0886E7
:0C03BB0007E50C24F8F886020886030809
:0E03C70086048A828B838CF01229D3FAA3124B
:0E03D50029D3FB8D828E838FF0EA122938A384
:0C03E300EB122938A80C08740426FCE476
:0E03EF000836FD0886068C828D838EF0EA1299
:0803FD002938A3EB1229388511
:050405000C81D00C2267
:0A040A00C00C85810CC082C083C0C5
:0C041400F005810581A80C08868208868E
:0E042000830886F01229D3FDA31229D3FEE52E
:0A042E000C2404F8A60508A606A891
:0C0438000C08740226FFE40836FD08865C
:0D044400068F828D838EF01229D3FAA31249
:0C04510029D3FBA80C08868208868308CB
:0E045D0086F0EA122938A3EB1229388F828D1F
:0C046B00838EF0E50C2404F8E61229381A
:0C047700A308E6122938A80C087404261B
:0E048300FAE40836FB0886048A828B838CF02C
:0C049100E50C2404F8E6122938A308E664
:07049D00122938850C81D003
:0204A4000C2228
:0A04A600C00C85810CAA82AB83C054
:0E04B00002C00312017BAC82AD83D003D002E8
:0E04BE00EAC39CF582EB9DF583C002C003C02B
:0E04CC0004C005122951AE82AF83D005D004C2
:0E04DA00D003D002C374149E74808FF063F0C0
:0C04E8008095F05054753802C002C0032B
:0E04F400C004C00512035BD005D004D003D0B5
:0C05020002752601EAC39CFCEB9DFD8CF9
:0C050E00068D07EF30E714A80C18181831
:0E051A008604C0048A828B831203251581801B
:0105280012C0
:0C052900A80C1818188604C0048A828BE5
:0605350083120340158152
:06053B0075820E12024859
:03054100D00C22B9
:0A054400C00C85810CAA82AB83ACC9
:0C054E00F0C002C003C004E50C24F8F863
:0C055A00E6C0E008E6C0E008E6C0E0E50E
:0C0566000C24FBF8E6C0E008E6C0E0084A
:0E057200E6C0E08A828B838CF0120373E58171
:0C05800024FAF581D004D003D002E50C71
:0E058C0024F7F8860574022AFAE43BFB8A8203
:0E059A008B838CF01229D3FAA31229D3FBC055
:0C05A800058A828B831204A61581D00CFA
:0105B4002224
:0A05B500C00C85810CAA82AB83AC58
:0E05BF00F0C002C003C00412040AD004D0032E
:0C05CD00D002A80C181818860574022A29
:0E05D900FAE43BFB8A828B838CF01229D3FA62
:0E05E700A31229D3FBC0058A828B831204A6BF
:0505F5001581D00C226D
:0C05FA00E53A30E01F30A00E747FC0E036
:0A060600900FA01203401581802B15
:0E061000747FC0E090F0601203251581801DFC
:0E061E0030A00E747FC0E090F060120325152E
:03062C0081800CBE
:0C062F00747FC0E0900FA0120340158102
:06063B00E53AF4F53A2255
:0706410012036F7530027512
:0A0648003802752600C2A975FB00F8
:0406520075FC002211
:03065600D2A92204
:06065900752501D2A92263
:0C065F007A077B00753101C002C0031255
:06066B00035BD003D00286
:0C067100EB701AE52FB406047A067B013A
:09067D00E531B402047A077B01A7
:0806860075A61E75A6E180E3D4
:0A068E00C00212036FD0028A82221C
:0E06980012271CAA82BA010875A61E75A6E1DB
:0206A60080F0E2
:0106A800222F
:0E06A90020A417743FC0E0900FA0120340156C
:0106B70081C1
:0B06B80020A40875A61E75A6E180F5C1
:0E06C30020A517743FC0E0900FA0120325156C
:0106D10081A7
:0B06D20020A50875A61E75A6E180F5A6
:0306DD00020641D1
:0E06E0007A007B0075820AC002C00312027805
:0406EE00D003D00263
:0906F200EB705C30A40320A504A8
:0406FB007A007B0105
:0C06FF0020A631752700758200C0021291
:06070B000278D0028A040E
:0C07110020A61B74C02527500D0C8C0284
:0A071D00752700D2C1D291752C0F90
:0807270075A61E75A6E180E233
:04072F008C027B01BC
:0E07330030A30C900009E0FCA3E0FD8C027BDB
:0107410001B6
:07074200EA24E150027A1ED7
:0807490075A61E75A6E180A152
:030751008A822277
:0C0754007A00758211C002120278D002F7
:0E076000EA7014C0021206A9D00230A2027A7A
:01076E000189
:08076F0075A61E75A6E180E9E4
:0A07770075820012027875820722D5
:0E078100AA827B007C07758204C002C003C000
:0E078F0004120278D004D003D002C002C003CE
:0E079D00C004120641D004D003D002E4BA0119
:0207AB00010447
:0107AD00FA51
:0E07AE00EB7076C002C003C0041206A9D0048E
:0C07BC00D003D00220A6487527007582EB
:0E07C8000AC002C003C004120278D004D0039D
:0207D600D0024F
:0C07D80020A61E74812527501075820099
:0D07E400C002C004120278D004D0027B01D4
:0807F10075A61E75A6E180DF6C
:0E07F900758204C002C003C004120278D0044E
:04080700D003D00248
:0E080B00EA601130A20E758200C0021202785F
:06081900D0027C0D7B0102
:08081F0075A61E75A6E1808795
:030827008C82229E
:0E082A0090000374CEF0A374FFF090000174F0
:0E083800E8F0A37403F09000057418F0A374A8
:0D084600FCF090000774E8F0A37403F0903C
:0D08530000097403F0A3E4F090000BF09096
:06086000000074AAF02262
:0E086600AA82C002120641D002758200C002B2
:0E08740012029CD002C002740EC0E0E4C0E08C
:0E088200E4C0E090000075F00012296F1581AF
:0E08900015811581D002C002740EC0E0E4C0D4
:0E089E00E0C0E090000012282515811581159C
:0D08AC0081D002C002740CC0E0E4C0E090F6
:0E08B900000075F000122664AB82AC8315813E
:0D08C7001581D002900000E0FDBDAA169042
:0E08D400000CE0FDA3E0FEEDB5030AEEB50456
:0608E20006BA01028001CC
:0108E80022ED
:0E08E9008A82C002120781AB82D002BB0702D6
:0208F70080017E
:0108F90022DC
:0808FA00900001E533F0A3E5D5
:0C09020034F090000074A0F08A82C00263
:0E090E00120781AC82D0028C03BB070280016D
:01091C0022B8
:08091D00900003E533F0A3E5AF
:0C09250034F0900000741AF08A82C002C6
:0E093100120781AC82D0028C03BB070280014A
:01093F002295
:08094000900007E533F0A3E588
:0C09480034F090000074A1F08A82C0021C
:0E095400120781AC82D0028C03E4BB070104C1
:0B096200FB6010900005E533F0A3E5FA
:08096D0034F0900000740AF060
:04097500EB70012200
:0D097900EA70369000097403F0A3E4F090DA
:0E098600000BF0309226900003E0FAA3E0FB95
:0E0994007402C0E0E4C0E08A828B831229EF77
:0E09A200AA82AB8315811581900003EAF0A3B1
:0209B000EBF06A
:0E09B20090000074AAF0740CC0E0E4C0E09065
:0E09C000000075F000122664AA82AB83158138
:0E09CE00158190000CEAF0A3EBF0120698746D
:0A09DC000EC0E07400C0E07400C01B
:0E09E600E09000001227D315811581158122A3
:0E09F4001206E0AA827B00900009EAF0A3EB55
:0E0A0200F0740CC0E0E4C0E090000075F0005D
:0E0A1000122664AA82AB831581158190000C1A
:0D0A1E00EAF0A3EBF0120698740EC0E0742D
:0A0A2B0000C0E07400C0E09000007D
:0A0A35001227D315811581158122C7
:0E0A3F00AA8290000BEAF0740CC0E0E4C0E064
:0E0A4D0090000075F000122664AA82AB83159B
:0E0A5B0081158190000CEAF0A3EBF0120698D2
:0A0A6900740EC0E07400C0E07400D9
:0E0A7300C0E09000001227D315811581158177
:010A81002252
:0A0A8200C00C85810CAA82AB837CB6
:0E0A8C0007C002C003C00412017BAD82AE831E
:0E0A9A00D004D003D002EAC39DF582EB9EF596
:0D0AA80083C004122951AA82AB83D004A898
:0C0AB5000C18181886057E00C3ED9AEEA0
:0D0AC10064808BF063F08095F050027C0A99
:050ACE008C82D00C2217
:090AD3007A01E530B402027A0751
:030ADC008A8222E9
:090ADF00E530B402047A07801727
:0C0AE800E52FB4060B7A06C00212036F63
:040AF400D0028007A5
:070AF800120157AB828B02D3
:030AFF008A8222C6
:0E0B0200AA827B0E20A10CE4A2B433FCB50243
:030B10000280025E
:020B13007B0F56
:030B15008B8222AE
:0A0B1800C00C85810CC082C083C0B0
:0E0B2200F07D077E007B0030A40630A50302A4
:020B30000D9224
:0E0B3200758204C003C006120278D006D003FC
:0B0B4000C003C006120641D006D0031F
:060B4B00EE6003020D90B4
:0D0B5100C00675A61E75A6E1C003C0061201
:0E0B5E0006A9D006D003C0031201BEAE82D09D
:0C0B6C0003A80C0886820886830886F027
:0D0B7800EE1229385401D0066045C006A8D1
:0B0B85000C0886820886830886F012A8
:0C0B900029D3FE5402D006602EC006A837
:0B0B9C000C0886820886830886F01291
:0C0BA70029D3FE5404D0066017C006A835
:0B0BB3000C0886820886830886F0127A
:090BBE0029D3FE5408D006700290
:020BC7007E01AD
:0E0BC900C006900003E0FEA3E0FFC003749698
:0E0BD700C0E08E828F83120A82AE821581D01A
:080BE500038E05E4BD0A0104C2
:070BED00D0067003020C7337
:0E0BF400C006C003C00612017BD006D00390DD
:0E0C02000001E0FFA3E0FEC0037496C0E08F87
:0E0C1000828E83120A82AE821581D0038E0579
:050C1E00E4BD0A010421
:0E0C2300D0066048C006C003C00612017BD098
:0E0C310006D003900005E0FFA3E0FEC00374B0
:0E0C3F0096C0E08F828E83120A82AE821581EB
:090C4D00D0038E05E4BD0701048B
:080C5600D00660047B09801741
:0E0C5E00C003C005C00612017BD006D005D031
:030C6C00038006FC
:040C6F007B0780027D
:020C73007B08FC
:050C7500BD0702800331
:030C7A00020D7DEB
:0E0C7D00758204C003C006120278D006D003B0
:060C8B0030A603020B4B32
:0B0C910075270075820AC003C0061220
:0B0C9C000278D006D003E4BB0701047F
:060CA700FFE4BB0801049C
:060CAD00FCE4BB09010498
:010CB300FD43
:060CB40030A603020B4B09
:0C0CBA0075A61E75A6E17481252750EE7A
:0B0CC600EF7008EC7011ED701A802236
:080CD100900001E533F0A3E5FA
:040CD90034F080165D
:080CDD00900003E533F0A3E5EC
:040CE50034F0800A5D
:080CE900900005E533F0A3E5DE
:020CF10034F0DD
:0E0CF300C007C003C004C005740CC0E0E4C01C
:0E0D0100E090000075F000122664AF82AA8315
:0E0D0F0015811581D005D004D00390000CEFA3
:0D0D1D00F0A3EAF0C003C004C005C0071237
:0E0D2A000698D007D005D004D003C003C00443
:0C0D3800C005C007740EC0E07400C0E0ED
:0C0D44007400C0E09000001227D315815D
:0E0D500015811581D007D005D004D0037E0197
:0E0D5E00758200C003C004C005C006C00712A5
:0E0D6C000278D007D006D005D004D003D007FF
:030D7A00020CB4B4
:0E0D7D00758200C003C006120278D006D003B3
:050D8B00D2C1020B4B78
:020D90007D13D1
:0D0D9200758200C005120278D0058D8285A3
:050D9F000C81D00C22C4
:0A0DA400C00C85810CAA827B07EACF
:070DAE0030E004EA20E23608
:0B0DB500C00274FFC0E07401C0E074D5
:0A0DC00000C0E0E4C0E07403C0E0EE
:0A0DCA007400C0E0E4C0E0E50C2472
:0E0DD400FBF886820886830886F0120544E547
:090DE2008124F9F581D0027B00A7
:080DEB00EA30E104EA20E332E2
:0A0DF30074FFC0E07405C0E0740056
:0A0DFD00C0E0E4C0E07403C0E0743D
:0A0E070000C0E0E4C0E0E50C24FBAD
:0E0E1100F886820886830886F0120544E58183
:060E1F0024F9F5817B00BF
:050E25008B82D00C22BD
:0A0E2A00C00CE581F50C240FF581E2
:0A0E3400A80C08087600A80C0808B6
:0C0E3E0008E4F6FBE50C2404F87600E55F
:0A0E4A000C2405F87601E50C2406DF
:0E0E5400F8760075A707D2AFC003120198D040
:0E0E620003C003120117D003C003120190D089
:0E0E700003C003120134D003C00312013ED0B0
:0E0E7E0003C003120186D003E4A2963325E0E0
:0C0E8C00FFE4A29733FE2FF532758200C0
:0E0E9800C003120278D003C2C1C290C29120E2
:090EA600A207C003120754D00397
:0C0EAF00C0031205FAD003A80C08760B53
:0C0EBB00E50C24072402F888018807C019
:0C0EC70001E50C240EF9A700D001C001C9
:090ED300E50C240FF9A700D00181
:0C0EDC00C000A80C08C3741096D0005091
:040EE800030221AD33
:0C0EEC00C000A80C0886F0D000E5F0243F
:0C0EF8000A83C0E0E5F0241483C0E0226F
:020F0400ADCB73
:020F0600836600
:020F08008DADAD
:020F0A0032E6CD
:020F0C002606B7
:020F0E00E326D8
:020F10005D255D
:020F120092103B
:010F140027B5
:020F15002110A9
:020F17001117B0
:020F19001F2196
:020F1B001718A5
:020F1D001D1B9A
:020F1F001E0FA3
:020F21001016A8
:020F2300201894
:010F250011BA
:0E0F2600C007C003C000C00112065FAF82D03A
:0C0F340001D000D003C000E50C240DF833
:0C0F4000A607D000C000E50C240DF8E46A
:040F4C00B6070104DF
:0E0F5000D000D0076066C003C007C000C0011B
:0E0F5E00120641D001D000D007D003758200EA
:0E0F6C00C003C007C000C001120866D001D04B
:0E0F7A0000D007D00390000BE024FF9290758A
:0E0F88008201C003C007C000C001120260D089
:0C0F960001D000D007D003C000A80C0858
:0E0FA2007601D000758200C003C007C000C0F9
:0C0FB00001120278D001D000D007D0035D
:0C0FBC00C000E50C240DF8B6060280050C
:050FC800D0000221AF82
:0C0FCD00D000C000A80C080806D000C02E
:0A0FD90000A80C0808B6030280040B
:040FE300D000803783
:0E0FE700D000C003C007C000C001120641D0F8
:0E0FF50001D000D007D00375821EC003C007D4
:0E100300C000C00112029CD001D000D007D066
:0B10110003C000A80C08760CD0000201
:02101C0021AF02
:0E101E00C003C007C000C001120641D001D0BF
:0E102C0000D007D003758201C003C007C000CA
:0E103A00C001120260D001D000D007D003C068
:0E10480003C007C000C0011205FAD001D0009D
:07105600D007D0030221AF17
:0E105D00C007C286C003C000C0011201BEAFB2
:0E106B0082D001D000D0038F06EE5401D007D2
:0E107900600FEE30E10BEE30E207EE30E303E5
:031087000221AF94
:0C108A00C000A80C08087600D000758299
:0E10960000C003C007C000C00112029CD001C0
:0E10A400D000D007D003C291C003C007C00027
:0E10B200C0011205FAD001D000D007D003C053
:0B10C00000A80C08760BD0000221AF46
:0C10CB00C007C000A80C08087600D00088
:0C10D700E50C2407FF7D007C40C003C036
:0C10E30007C000C00174FFC0E07403C02F
:0A10EF00E07400C0E0E4C0E074010A
:0C10F900C0E07400C0E0E4C0E08F828D15
:0E110500838CF0120544E58124F9F581D001B8
:0C111300D000D007D003C000A80C087664
:08111F0002D000D0070221AF4D
:0C112700C007C000A80C08087600D0002B
:0C113300E50C2407FC7D007F40C003C0D9
:0C113F0007C000C00174FFC0E07403C0D2
:0A114B00E07400C0E0E4C0E07407A7
:0C115500C0E07400C0E0E4C0E08C828DBB
:0E116100838FF0120544E58124F9F581D00159
:0C116F00D000D007D003C000A80C087608
:08117B0002D000D0070221AFF1
:0E118300C007C003C007C000C001120ADFACE5
:0C11910082D001D000D007D003C000E5E0
:0C119D000C240DF8A604D000860408867F
:0E11A9000518900007E0FFA3E0FEECB5070874
:0811B700EDB50604740180018E
:0111BF00E44B
:0711C000D007700302138E3B
:0711C700E537B401028003CB
:0311CE0002138E7B
:0E11D10075821EC003C007C000C00112027864
:0E11DF00D001D000D007D00375821EC003C01F
:0E11ED0007C000C001120286D001D000D0075A
:0C11FB00D003C000E50C240DF8B607027C
:02120700800560
:05120900D0000212906C
:0C120E00D000E50C24072402FCC000A85E
:0E121A00048682088683D000C003C007C0008F
:0E122800C0017414C0E0120A82AC821581D09D
:0D12360001D000D007D003BC070EC000A8F7
:0A1243000C08760AD0007537008011
:01124D00425E
:0C124E00E50C2407FC7D007E40C003C0BE
:0C125A0007C000C00174FFC0E07407C0B2
:0A126600E07400C0E0E4C0E074038F
:0C127000C0E07400C0E0E4C0E08C828D9F
:0E127C00838EF0120544E58124F9F581D0013E
:06128A00D000D007D003E4
:0C129000C000E50C240DF8B60602800436
:04129C00D000806D91
:0E12A000D000C003C007C000C001120641D03C
:0E12AE0001D000D007D003758201C003C00735
:0E12BC00C000C001120260D001D000D007D0E7
:0C12CA0003E50C2407FC7D007E40C003FF
:0C12D600C007C000C00174FFC0E0740736
:0A12E200C0E07400C0E0E4C0E07456
:0A12EC0003C0E07400C0E0E4C0E0BD
:0E12F6008C828D838EF0120544E58124F9F57B
:0913040081D001D000D007D00314
:0C130D00C000E50C240DF8B605028005B8
:05131900D0000214F7F2
:0E131E00D000C003C007C000C001120641D0BD
:0E132C0001D000D007D003758201C003C007B6
:0E133A00C000C001120260D001D000D007D068
:0C13480003E50C2407FC7D007E40C00380
:0C135400C007C000C00174FFC0E07407B7
:0A136000C0E07400C0E0E4C0E074D7
:0A136A0003C0E07400C0E0E4C0E03E
:0E1374008C828D838EF0120544E58124F9F5FC
:0C13820081D001D000D007D0030214F786
:0C138E00C000E50C240DF8B60702800535
:05139A00D0000214C1A7
:0C139F00D000C000E50C2404F8B60102E8
:0213AB008004BC
:0413AD00D000804E9E
:0E13B100D000758201C003C007C000C0011249
:0D13BF000260D001D000D007D003C000E5CF
:0A13CC000C2404F87600D000E50CB4
:0E13D6002407FC7D007E40C003C007C000C09D
:0E13E4000174FFC0E08C828D838EF01205B57F
:0D13F2001581D001D000D007D0030214C136
:0E13FF00C007870409870519900003E0FEA3CC
:0E140D00E0FFECB50608EDB5070474018001A0
:01141B00E4EC
:0C141C00D0076009C000A80C087608D0BA
:0114280000C3
:0E142900C001C000A8078604088605D0009008
:0E1437000001E0FEA3E0FAECB50608EDB502F8
:051445000474018001A8
:01144A00E4BD
:0C144B00D0016009C000A80C087607D092
:011457000094
:0E145800900005E0FAA3E0FC900003E0FDA385
:0E146600E0FEEAC39DF582EC9EF583C003C054
:0E14740007C000C001122951AA82AC83D0012A
:0E148200D000D007D003C374C89A74808CF0D9
:0C14900063F08095F0502AC000E50C24A9
:0D149C000EF88600860208860418D0009025
:0E14A9000005E0FDA3E0FEEAB5050DECB5067A
:0A14B70009C000A80C087609D00057
:0C14C100C000E50C240DF8B60602800403
:0414CD00D000800BC0
:0B14D100D000C000A80C087603D0007B
:0C14DC00C000E50C240DF8B605028004E9
:0414E800D000800BA5
:0B14EC00D000C000A80C087603D00060
:0E14F700C003C007C000C0011201F4AA82D0D9
:0C15050001D000D007D003BA0178E53710
:0E1511007074C003C007C000C001120641D0B4
:0E151F0001D000D007D003758201C003C007C1
:0E152D00C000C001120260D001D000D007D073
:0C153B0003E50C2407FA7C007D40C0038F
:0C154700C007C000C00174FFC0E07407C2
:0A155300C0E07400C0E0E4C0E074E2
:0A155D0001C0E07400C0E0E4C0E04B
:0E1567008A828C838DF0120544E58124F9F50B
:0C15750081D001D000D007D003C000A836
:061581000C087602D00008
:0C158700C000E50C240FF8860086020866
:0E159300860418D000900003E0FDA3E0FEEAFD
:0915A100B50506ECB50602800355
:0315AA000221AF6C
:0E15AD00C007C000C0011201BEAA82D001D04A
:0E15BB0000D0078A03EB30E007EB30E10302BB
:0215C90021AF50
:0C15CB00C000E50C2406F8B60102800404
:0415D700D0008018A8
:0C15DB00D000C000A80C080808A603D02F
:0C15E70000C000E50C2406F87600D000DF
:0E15F300C003C007C000C001120659D001D0CD
:0E16010000D007D003C003C007C000C0011214
:0D160F00035BD001D000D007D003C000A8BD
:09161C000C08760DD0000221AF8C
:0E162500C003C007C000C001120ADFAA82D0B5
:0C16330001D000D007D003C000E50C245B
:0C163F000DF8A602D000C000E50C240D40
:06164B00F8B6070280055D
:05165100D0000216F8B4
:0C165600D000EB20E04BE50C2407FA7CF0
:0E166200007D40C003C007C000C00174FFC07F
:0A167000E07401C0E07400C0E0E483
:0A167A00C0E07403C0E07400C0E09B
:0E168400E4C0E08A828C838DF0120544E5817B
:0E16920024F9F581D001D000D007D003C000AC
:0716A000A80C087602D0003F
:0C16A700EB20E14BE50C2407FA7C007DF1
:0E16B30040C003C007C000C00174FFC0E07457
:0A16C10005C0E07400C0E0E4C0E0E2
:0A16CB007403C0E07400C0E0E4C046
:0E16D500E08A828C838DF0120544E58124F9B1
:0D16E300F581D001D000D007D003C000A8D1
:0616F0000C087602D00098
:0216F600D2869A
:0C16F800C000E50C240DF8B606028004CA
:04170400D000800B86
:0B170800D000C000A80C087603D00041
:0C171300C000E50C240DF8B605028005AE
:05171F00D0000221AF23
:0C172400D000C000A80C087603D0000222
:0217300021AFE7
:0C173200E50C2407FA7C007D40C003C0D9
:0E173E0007C000C00174FFC0E08A828C838D5A
:0E174C00F01205B51581D001D000D007D003F2
:0C175A00C000A80C087602D0000221AFED
:0C176600C000E50C2404F87601D000C09F
:0E17720003C007C000C001120641D001D00024
:0E178000D007D003758201C003C007C000C0AF
:0E178E0001120260D001D000D007D003C000CD
:0A179C00A80C080806D000C000A841
:0617A6000C0808B6030068
:0E17AC00D000402C75821EC003C007C000C0D4
:0E17BA000112029CD001D000D007D003C00065
:0A17C800A80C087604D000C000A8A9
:0A17D2000C08087600D0000221AFD9
:0C17DC00E50C2407FA7C007D40C003C02F
:0E17E80007C000C00174FFC0E08A828C838DB0
:0E17F600F01205B51581D001D000D007D00348
:0C180400C000A80C087602D0000221AF42
:0E181000C286758200C003C007C000C001126E
:0E181E000B02AA82D001D000D007D003C00078
:0C182C00E50C240DF8A602D000C000E579
:091838000C240DF8B60E02800428
:04184100D00080361D
:0C184500D000E50C24072402FAC000A823
:0E185100028682088683D000C003C007C00054
:0E185F00C00174FFC0E01204A61581D001D0B4
:0C186D0000D007D003C000A80C087602D1
:02187900D0009D
:0E187B00C003C007C000C0011201F4AA82D051
:0C18890001D000D007D003BA0102800398
:031895000221AF7E
:0C189800E50C2407FA7C007D40C003C072
:0C18A40007C000C00174FFC0E07407C062
:0A18B000E07400C0E0E4C0E0740141
:0C18BA00C0E07400C0E0E4C0E08A828C52
:0E18C600838DF0120544E58124F9F581D001EF
:0C18D400D000D007D003C000A80C08769C
:0618E00002D0000221AF5E
:0C18E600C000A80C08087600D000C0006C
:0C18F200A80C080808E620E004D00080E4
:0118FE0014D5
:0C18FF00D000C000A80C080808E630E18A
:06190B0005D0000219CF17
:02191100D00004
:0E191300900009E0FAA3E0FC8A82C003C0073E
:0E192100C000C0017401C0E01202B2AA82151B
:0D192F0081D001D000D007D003BA0C4DE5E7
:0C193C000C2407FA7C007D40C003C007AB
:0C194800C000C00174FFC0E07407C0E0E4
:0A1954007400C0E0E4C0E07401C0BC
:0C195E00E07400C0E0E4C0E08A828C83EA
:0E196A008DF0120544E58124F9F581D001D0FD
:0C19780000D007D003C000A80C087602C5
:04198400D0008047C8
:0C198800E50C2407FA7C007D40C003C081
:0A19940007C000C0017403C0E07436
:0A199E0000C0E0E4C0E07401C0E006
:0C19A8007400C0E0E4C0E08A828C838DF3
:0E19B400F0120373E58124FAF581D001D00012
:0C19C200D007D003C000A80C08760FD09E
:0119CE000018
:0C19CF00C000A80C080808E630E205D0B3
:0419DB0000021A9B51
:0E19DF00D000C003C007C000C0011201BEAAA4
:0E19ED0082D001D000D007D0038A06EE20E29F
:0C19FB004BE50C2407FA7C007D40C00383
:0C1A0700C006C007C000C0017403C0E0AE
:0A1A13007400C0E0E4C0E07401C0FC
:0C1A1D00E07400C0E0E4C0E08A828C832A
:0E1A29008DF0120373E58124FAF581D001D00F
:0C1A370000D007D006D003C000A80C08A7
:041A4300760FD0004A
:0C1A4700EE20E350C000A80C080808E6E0
:0C1A530054F7F6E50C2407FA7C007D40F7
:0C1A5F00C003C007C000C0017405C0E057
:0A1A6B007400C0E0E4C0E07401C0A4
:0C1A7500E07400C0E0E4C0E08A828C83D2
:0E1A81008DF0120373E58124FAF581D001D0B7
:0C1A8F0000D007D003A80C08760FD00090
:0E1A9B00C003C007C000C0011201F4AA82D02F
:0C1AA90001D000D007D003BA0102800376
:031AB5000221AF5C
:0C1AB800E50C2407FA7C007D40C003C050
:0C1AC40007C000C00174FFC0E07407C040
:0A1AD000E07400C0E0E4C0E074011F
:0C1ADA00C0E07400C0E0E4C0E08A828C30
:0E1AE600838DF0120544E58124F9F581D001CD
:0C1AF400D000D007D003C000A80C08767A
:061B000002D0000221AF3B
:0C1B0600C000A80C08087600D000C00049
:0C1B1200A80C080808E620E104D00080C0
:011B1E0014B2
:0C1B1F00D000C000A80C080808E630E068
:061B2B0005D000021BEFD3
:021B3100D000E2
:0E1B3300900009E0FAA3E0FC8A82C003C0071C
:0E1B4100C000C0017402C0E01202B2AA8215F8
:0D1B4F0081D001D000D007D003BA0C4DE5C5
:0C1B5C000C2407FA7C007D40C003C00789
:0C1B6800C000C00174FFC0E07407C0E0C2
:0A1B74007400C0E0E4C0E07405C096
:0C1B7E00E07400C0E0E4C0E08A828C83C8
:0E1B8A008DF0120544E58124F9F581D001D0DB
:0C1B980000D007D003C000A80C087602A3
:041BA400D0008047A6
:0C1BA800E50C2407FA7C007D40C003C05F
:0A1BB40007C000C0017403C0E07414
:0A1BBE0000C0E0E4C0E07405C0E0E0
:0C1BC8007400C0E0E4C0E08A828C838DD1
:0E1BD400F0120373E58124FAF581D001D000F0
:0C1BE200D007D003C000A80C08760FD07C
:011BEE0000F6
:0C1BEF00C000A80C080808E630E305D090
:041BFB0000021CBB0D
:0E1BFF00D000C003C007C000C0011201BEAA82
:0E1C0D0082D001D000D007D0038A06EE20E37B
:0C1C1B004BE50C2407FA7C007D40C00360
:0C1C2700C006C007C000C0017403C0E08C
:0A1C33007400C0E0E4C0E07405C0D6
:0C1C3D00E07400C0E0E4C0E08A828C8308
:0E1C49008DF0120373E58124FAF581D001D0ED
:0C1C570000D007D006D003C000A80C0885
:041C6300760FD00028
:0C1C6700EE20E250C000A80C080808E6BF
:0C1C730054FBF6E50C2407FA7C007D40D1
:0C1C7F00C003C007C000C0017401C0E039
:0A1C8B007400C0E0E4C0E07405C07E
:0C1C9500E07400C0E0E4C0E08A828C83B0
:0E1CA1008DF0120373E58124FAF581D001D095
:0C1CAF0000D007D003A80C08760FD0006E
:0E1CBB00C003C007C000C0011201F4AA82D00D
:0C1CC90001D000D007D003BA0102800354
:031CD5000221AF3A
:0C1CD800E50C2407FA7C007D40C003C02E
:0C1CE40007C000C00174FFC0E07407C01E
:0A1CF000E07400C0E0E4C0E07401FD
:0C1CFA00C0E07400C0E0E4C0E08A828C0E
:0E1D0600838DF0120544E58124F9F581D001AA
:0C1D1400D000D007D003C000A80C087657
:061D200002D0000221AF19
:0C1D2600D286C000A80C08087600D0008F
:0E1D3200C003C007C000C0011201BEAA82D0CB
:0C1D400001D000D007D003C000A80C08A0
:0C1D4C000808A602D000E50C2403FA7C75
:0E1D5800007D408A828C838DF0C003C007C0DE
:0E1D660000C001120B18AA82D001D000D007D5
:0C1D7400D003C000E50C240DF8A602D03E
:0C1D800000C000E50C240DF8B613028032
:011D8C000452
:041D8D00D000800DF5
:0C1D9100D000C000E50C2405F87600D05E
:011D9D000045
:0C1D9E00C000E50C2405F8B6010280042A
:041DAA00D000805F86
:0E1DAE00D000900003E0FAA3E0FC8A828C8350
:0E1DBC00C003C007C000C001120207AA82D0F7
:0C1DCA0001D000D007D003C000E50C24BD
:0C1DD6000DF8A602D000C000E50C240DA2
:061DE200F8B610028004B7
:041DE800D000802186
:0E1DEC00D00075821EC003C007C000C00112E7
:0D1DFA00029CD001D000D007D003C000A88B
:061E07000C08760ED0006D
:0C1E0D00E50C2407FA7C007D40C003C0F7
:0E1E190007C000C001C002C004C005C000A880
:0C1E27000C0808088682D000120DA4AA46
:0E1E330082158115811581D001D000D007D015
:0C1E410003C000E50C240DF8A602D00040
:0C1E4D00C000E50C240DF8E6D000701475
:0C1E5900C000E50C2405F87601D000C0A4
:081E650000A80C087602D00071
:0E1E6D00C003C007C000C0011201F4AA82D059
:0C1E7B0001D000D007D003BA01028003A0
:031E87000221AF86
:0C1E8A00C000E50C2405F87601D000E54E
:0C1E96000C2407FA7C007D40C003C0074C
:0C1EA200C000C00174FFC0E07407C0E085
:0A1EAE007400C0E0E4C0E07403C05B
:0C1EB800E07400C0E0E4C0E08A828C838B
:0E1EC4008DF0120544E58124F9F581D001D09E
:0C1ED20000D007D003C000A80C08760266
:051EDE00D0000221AF5D
:0C1EE300D286C000A80C08087600D000D1
:0E1EEF00C003C007C000C0011201BEAA82D00D
:0C1EFD0001D000D007D003C000A80C08E2
:0C1F09000808A602D000E50C2407FC7DAF
:0E1F1500007E40C003C007C000C001C004C071
:0E1F230005C0068A82120DA4AA8215811581BE
:0D1F31001581D001D000D007D003C000E51D
:0B1F3E000C240DF8A602D000C000E546
:0C1F49000C240DF8E6D00060030221AF6C
:0E1F5500758200C003C007C000C001120278F0
:0E1F6300D001D000D007D003758200C003C0AB
:0E1F710007C000C001120286D001D000D007C8
:0C1F7F00D003C000A80C087602D00002BD
:021F8B0021AF84
:0C1F8D00D286C000A80C08087600D00026
:0E1F9900C003C007C000C0011201BEAA82D062
:0C1FA70001D000D007D003C000A80C0837
:0C1FB3000808A602D000E50C2407FC7D05
:0E1FBF00007E40C003C007C000C001C004C0C7
:0E1FCD0005C0068A82120DA4AA821581158114
:0D1FDB001581D001D000D007D003C000E573
:0B1FE8000C240DF8A602D000C000E59C
:0C1FF3000C240DF8E6D000702BF582C025
:0E1FFF0003C007C000C00112029CD001D00038
:0C200D00D007D003C291C000E50C2404F1
:0C201900F87600D000C000A80C08760289
:02202500D000E9
:0E202700C003C007C000C0011201F4AA82D09D
:0C20350001D000D007D003BA01028003E4
:032041000221AFCA
:0C204400E50C2407FA7C007D40C003C0BE
:0C20500007C000C00174FFC0E07407C0AE
:0A205C00E07400C0E0E4C0E074038B
:0C206600C0E07400C0E0E4C0E08A828C9E
:0E207200838DF0120544E58124F9F581D0013B
:0C208000D000D007D003C000A80C0876E8
:06208C0002D0000221AFAA
:0E209200D286C003C007C000C0011201BEAA62
:0C20A00082D001D000D007D003C000A8FF
:0A20AC000C080808A602D000E52B7E
:0D20B600702DF582C003C007C000C00112EC
:0E20C300029CD001D000D007D003C291C00013
:0C20D100E50C2406F87601D000C000A841
:0820DD000C087610D0008063AE
:0C20E500E50C2407FC7D007E40C003C019
:0E20F10007C000C001C004C005C0068A8212EC
:0E20FF000DA4AA82158115811581D001D00093
:0C210D00D007D003C000E50C240DF8A69C
:0C21190002D000C000E50C240DF8E6D058
:0E212500007020F582C003C007C000C0011288
:0E213300029CD001D000D007D003C291C000A2
:07214100A80C087602D00093
:0E214800C003C007C000C0011201F4AA82D07B
:0C21560001D000D007D003BA014FE50C07
:0E2162002407FA7C007D40C003C007C000C007
:0A2170000174FFC0E07407C0E074C2
:0A217A0000C0E0E4C0E07403C0E020
:0C2184007400C0E0E4C0E08A828C838D0F
:0E219000F0120544E58124F9F581D001D0005C
:0C219E00D007D003C000A80C087602D0C7
:0321AA00008002B0
:0221AD0080FEB2
:0C21AF0075A61E75A6E130A20302224DA9
:0E21BB00758200C003C007C000C00112027888
:0E21C900D001D000D007D003D2C1C003C007A0
:0E21D700C000C001120641D001D000D007D0D8
:0D21E50003758201C003C007C000C00112D5
:0E21F2000260D001D000D007D003758201C07A
:0E22000003C007C000C001120866D001D00064
:0E220E00D007D003758200C003C007C000C017
:0E221C0001120278D001D000D007D003D2C149
:0B222A0020A20875A61E75A6E180F535
:0E223500758201C003C007C000C00112026024
:0A224300D001D000D007D003C2C1C3
:06224D0030A3030222E2AF
:0E225300C003C007C000C001120641D001D078
:0E22610000D007D003758200C003C007C00084
:0E226F00C001120278D001D000D007D003D2F7
:0D227D00C1758201C003C007C000C001127E
:0E228A000260D001D000D007D003C003C0070F
:0E229800C000C0011209F4D001D000D007D060
:0D22A60003758200C003C007C000C0011214
:0C22B3000278D001D000D007D003D2C1C7
:0B22BF0020A30875A61E75A6E180F59F
:0E22CA00758201C003C007C000C0011202608F
:0A22D800D001D000D007D003C2C12E
:0622E20030A603020EDC31
:0E22E800C003C007C000C001120641D001D0E3
:0C22F60000D007D003752700758200C0DF
:0E23020003C007C000C001120278D001D00055
:0E231000D007D003D2C1758201C003C007C040
:0E231E0000C001120260D001D000D007D00331
:0A232C0020A62C74812527501E7591
:0C2336002700B290E4A29033F582C003AF
:0E234200C007C000C001120A3FD001D000D079
:0323500007D003B0
:0823530075A61E75A6E180D1FC
:09235B00C2C1020EDC850C81D028
:022364000C2249
:0E236600C0E0C0F0C082C083C002C003C0044B
:0C237400C005C006C007C000C001C020AA
:0A238000C0D075D000E53BC39533D3
:09238A00F582E53C9534F583125F
:0E2393002951AA82AB83C374029A74808BF026
:0A23A10063F08095F0400302240A67
:0423AB0085333B85B6
:0423AF00343CE4F5E1
:0423B3003DF53EE5D1
:0A23B70030B40325E525B40114E558
:0C23C100FB246F400AC2A91206417525DA
:0323CD000080107D
:0423D00015FB800C6D
:0A23D400E5FB24DF4004C2A98002EB
:0223DE0015FBED
:0A23E000E530B40425E525B401142E
:0C23EA00E5FC246F400AC2A912064175F0
:0423F600250080102E
:0423FA0015FC800C42
:0A23FE00E5FC24DF4004C2A98002C0
:0224080015FCC1
:0C240A00D0D0D020D001D000D007D006E8
:0E241600D005D004D003D002D083D082D0F005
:03242400D0E032D3
:0E242700C0E0C0F0C082C083C002C003C00489
:0C243500C005C006C007C000C001C020E8
:0A244100C0D075D0000527E52FB4C8
:04244B0001028037D3
:09244F00052474D32524502FE567
:072458002DC39533F582E569
:06245F002E9534F58312F6
:0724650029518582478583A0
:07246C0048C3E5479405E5B4
:0A24730048648094805003752F0622
:04247D0085332D85F1
:03248100342E7581
:02248400240032
:08248600E529600E053FC3E5E6
:08248E003F95294005B2C1751C
:022496003F0005
:0A249800E52A6010C2900540C3E57C
:0824A20040952A4005B2877540
:0224AA004000F0
:0824AC00E52B603E0541C3E58C
:0A24B40041952B400BC290B291B28B
:0624BE00C1B28775410068
:0724C4000543E4B5430205E6
:0124CB0044CC
:0A24CC00C3E5439436E54494014053
:0A24D60017C291C2C1E4F543F544BA
:0524E000F541F52B9011
:0924E500000BE024FF9290D28765
:0824EE00E52C60130542C3E573
:0A24F60042952C400AC291C2C17544
:052500002C00754200F3
:09250500052374C32523500505CC
:04250E002875230009
:072512000545E4B545020593
:01251900467B
:0A251A00C3743695457401954650D0
:0B25240014C2A7C374549545740195C0
:09252F00465007D2A7E4F545F57A
:01253800465C
:0C253900D0D0D020D001D000D007D006B8
:0E254500D005D004D003D002D083D082D0F0D5
:03255300D0E032A3
:0E255600C0E0C0F0C082C083C002C003C00459
:0C256400C005C006C007C000C001C020B8
:0E257000C0D075D000E5D8541870030226477D
:0E257E00E4A2963325E0FAE4A29733FB2AF597
:0A258C004975F003A42476FAE43444
:0B2596002AFB8A828B83A3E493FCE500
:0925A10032B5041C153374FFB5BA
:0425AA0033021534AF
:0625AE00754B00054CE531
:0825B4004CB4FF0675380175F7
:0225BC004C00D1
:0325BE008549321A
:0C25C1008A828B83A3A3E493FAE532B571
:0A25CD00021E74012533F533E435D6
:0425D70034F534752E
:0525DB004C00054BE57A
:0825E0004BB4FF0675380075CD
:0225E8004B00A6
:0325EA00854932EE
:0925ED00E526B40126E533C3958F
:0625F60035F582E5349585
:0C25FC0036F583122951AA82AB83C37408
:0E260800F49A74818BF063F08095F040031219
:02261600065666
:06261800E533B53508E5CD
:05261E0034B536031283
:0226230006416E
:0C262500C2DBC2DC30D81BE54AB4010760
:06263100E4F533F534F579
:012637004A58
:08263800E531B4010375310224
:07264000C2D8D2C1752C0FB6
:0C264700D0D0D020D001D000D007D006A9
:0E265300D005D004D003D002D083D082D0F0C6
:03266100D0E03294
:0C2A760000010201030002000303020142
:0E2A8200474154455F56455253494F4E3A2046
:0E2A90002449643A205F676174652E632C76DA
:0E2A9E0020312E323720323030372F31302F9A
:0E2AAC0032382031333A34393A313520746FE4
:0B2ABA006D61737A20457870202400C5
:0A266400C00C85810CC082C083C049
:0C266E00F0E5812407F581E50C2406F856
:09267A0076FF0876FF7F007A006C
:0C2683008F038A04E50C24FCF8C3EB96DE
:0C268F00EC08965078A80C08EF26FBEA37
:0D269B000836FC0886058B828C838DF012BA
:0C26A80029D3FBE50C240604F88604E4AA
:0C26B400FDFEEB6204EE6205EC24C5F5AF
:0A26C00082ED342AF583E493FBE574
:0A26CA000C2404F8A603087600E5CE
:0A26D4000C2404F87D00088606E5DA
:0C26DE000C2406F88604E4FB6205EC62A4
:0C26EA0006E50C2404F886037C00EB429B
:0C26F60005EC4206E50C2406F8A60508D9
:07270200A6060FBF00010A4B
:0327090002268322
:0B270C00E50C2406F886820886838511
:052717000C81D00C2232
:0E2AC50000C0C101C30302C2C60607C705C593
:0E2AD300C404CC0C0DCD0FCFCE0E0ACACB0B17
:0E2AE100C90908C8D81819D91BDBDA1A1EDE7D
:0E2AEF00DF1FDD1D1CDC14D4D515D71716D63D
:0E2AFD00D21213D311D1D010F03031F133F3D7
:0E2B0B00F23236F6F737F53534F43CFCFD3D7A
:0E2B1900FF3F3EFEFA3A3BFB39F9F83828E858
:0E2B2700E929EB2B2AEAEE2E2FEF2DEDEC2CF8
:0E2B3500E42425E527E7E62622E2E323E1215A
:0E2B430020E0A06061A163A3A26266A6A7675E
:0E2B5100A56564A46CACAD6DAF6F6EAEAA6AE4
:0E2B5F006BAB69A9A86878B8B979BB7B7ABA64
:0E2B6D00BE7E7FBF7DBDBC7CB47475B577B7EE
:0E2B7B00B67672B2B373B17170B050909151D2
:0E2B89009353529296565797559594549C5CD0
:0E2B97005D9D5F9F9E5E5A9A9B5B9959589870
:0E2BA500884849894B8B8A4A4E8E8F4F8D4D42
:0E2BB3004C8C44848545874746868242438386
:042BC100418180408E
:060103007508F07509FF0C
:07271C00740155D2F5822281
:05272300D310AF01C35B
:0E272800C0D0AA82AB83ACF075D2021229D3C6
:0B273600FAF58275D200D0D092AF22DD
:0A274100C00C85810CD310AF01C35A
:0C274B00C0D0AA82AB83ACF075D202A80B
:0C2757000C181818E612293875D25075BD
:0C276300D2A0A80C1818188682D0D092C2
:04276F00AFD00C22B9
:05277300D310AF01C30B
:0E277800C0D0AA82AB83ACF075D2021229D376
:0E278600FAA31229D3FB8A828B8375D200D06E
:04279400D092AF220E
:0A279800C00C85810CD310AF01C303
:0C27A200C0D0AA82AB83ACF075D202E577
:0C27AE000C24FCF8E6122938A308E612FF
:0C27BA00293875D25075D2A0E50C24FC23
:0C27C600F88682088683D0D092AFD00C39
:0127D20022E4
:0A27D300C00C85810CD310AF01C3C8
:0C27DD00C0D0AA82AB83E50C24FCF88677
:0627E900040886057E00D5
:0C27EF00E50C24FBF8C3EE96501F8C8212
:0E27FB008D83E0FFA3AC82AD8375D2028A828B
:0E2809008B83EFF0A3AA82AB8375D2000E8002
:01281700D7E9
:0C28180075D25075D2A0D0D092AFD00C79
:012824002291
:0A282500C00C85810CD310AF01C375
:0C282F00C0D0AA82AB83E50C24FCF88624
:06283B00040886057E0082
:0C284100E50C24FBF8C3EE96501F75D286
:0E284D00028C828D83E0FFA3AC82AD8375D236
:0E285B00008A828B83EFF0A3AA82AB830E80EB
:01286900D797
:0A286A0075D200D0D092AFD00C223E
:06010900750AF0750BFF02
:0A287400C00C85810CD310AF01C326
:0C287E00C0D0AA82E50C24FAF88682E59E
:0B288A000C24FA04F8868343A201E549
:0A2895000C24FCF88682E50C24FCFC
:0C289F0004F8868353A2FE43A22074BA02
:0928AB00C0E07428C0E0C00AC0BE
:0628B4000B79098AE02205
:0C28BA0053A2DF85E082D0D092AFD00C9A
:0128C60022EF
:0E28C700C2ACC2BC4387805387BF43892075D3
:0E28D5008DF3D29EC29FD29CC299C298D28E21
:0128E30022D2
:0828E400AA82AB83ACF07D0079
:0E28EC008A828B838CF0C002C003C004C0053A
:0E28FA001229ABAE82AF83D005D004D003D03C
:0E290800028D007900C3EE98EF648089F063C1
:0E291600F08095F0401BED2AFEE43BFF8C00A4
:0B2924008E828F8388F01229D3F59972
:05292F0010990280FB7D
:032934000D80B55E
:01293700227D
:06006500E478FFF6D8FD6F
:080043007900E94400601B7A1A
:05004B0000902BC578B8
:030050000E75A08A
:0A00530000E493F2A308B8000205D0
:08005D00A0D9F4DAF275A0FF4E
:0E29380020F71030F6118883A88220F507F6EC
:05294600A88375830069
:01294B002269
:03294C00F280F71F
:02294F00F02274
:0E295100AA82E583FB33B3E433FC60068A04FC
:04295F008B0580075D
:07296300C3E49AFCE49BFDB4
:05296A008C828D832228
:08006B007800E84400600A7906
:030073000075A075
:0600760000E4F309D8FCD0
:08007C00780EE84400600C79E5
:0B00840001900000E4F0A3D8FCD9FAC2
:08296F0085821085831185F0BB
:0429770012AD10AEDF
:04297B0011AF12A8DE
:03297F000EA90F8F
:092982008802890318B8FF01194D
:0C298B00EA4B60128D828E838FF0E50D08
:0A299700122938A3AD82AE8380E15F
:0729A100851082851183857A
:0329A80012F02208
:0A29AB00AA82AB83ACF07D007E0031
:0E29B5008A828B838CF01229D3FFA3AA82ABF7
:0B29C30083EF60070DBD00EA0E80E707
:0529CE008D828E8322C2
:0300360075814C85
:0A003900122A72E582600302011230
:0E29D30020F71430F6148883A88220F507E65A
:0629E100A88375830022AB
:0329E700E280F794
:0329EA00E4932251
:0229ED00E022E6
:0E29EF00C2D5E58330E70DD2D5E4C39582F55D
:0629FD0082E49583F583DE
:0A2A0300E50E30E70BE4C3950DF576
:052A0D000DE4950EF53B
:012A12000EB5
:0E2A1300122A2530D50BE4C39582F582E49596
:032A210083F583B7
:012A2400228F
:082A2500E50D450E60467A0143
:072A2D00E50D25E0F50DE5C4
:092A34000E334012F50EE5829507
:0A2A3D000DE583950E40030A80E6C4
:032A4700C3E50ED6
:072A4A0013F50EE50D13F575
:012A51000D77
:0A2A5200C3E582950DF5F0E58395CC
:082A5C000E4005F58385F082B0
:072A6400C3E50E13F50EE5BA
:062A6B000D13F50DDAE188
:012A71002242
:042A72007582002247
:00000001FF
